{
  "transactions": [
    {
      "hash": "0x1ab1dfcf3802d1c0355fc5b265df5d288c8dcd0f14f8e3d3753db3f61face063",
      "transactionType": "CALL",
      "contractName": null,
      "contractAddress": "0x14934ed5cf8c816721ffb0ceede8c409bb9d010e",
      "function": "setInitFunction(address)",
      "arguments": [
        "0xfd2E0998d4285E890d8D4C8a76412e71ea2439B5"
      ],
      "transaction": {
        "from": "0x4c08d39f511b9d20b3ca9f62959e6c1a3dd50910",
        "to": "0x14934ed5cf8c816721ffb0ceede8c409bb9d010e",
        "gas": "0xd55b",
        "value": "0x0",
        "input": "0xfa5ed5c9000000000000000000000000fd2e0998d4285e890d8d4c8a76412e71ea2439b5",
        "nonce": "0xbd",
        "chainId": "0x14a34"
      },
      "additionalContracts": [],
      "isFixedGasLimit": false
    },
    {
      "hash": "0xd528cef8cc86be698df6595be2d8ae926eb36472f9ddfe583a1a85fcc30e2dea",
      "transactionType": "CALL",
      "contractName": null,
      "contractAddress": "0x14934ed5cf8c816721ffb0ceede8c409bb9d010e",
      "function": "registerBrand(string,(uint256,uint256,uint256,uint256,uint256),address,uint64,string,string[])",
      "arguments": [
        "lesscars",
        "(86400, 86400, 86400, 0, 6000)",
        "0xf0830060f836B8d54bF02049E5905F619487989e",
        "387",
        "https://www.bing.com/ck/a?!&&p=91faf93b184cfab8e5985150b824ff12ef23785705d6887724dc5f3117220486JmltdHM9MTc1MTE1NTIwMA&ptn=3&ver=2&hsh=4&fclid=015fcb0c-bae6-6d66-038d-de23bb9f6c5b&psq=fwerrari&u=a1aHR0cHM6Ly93d3cuZmVycmFyaS5jb20vZW4tRU4&ntb=1",
        "[http://13.222.216.169:8080/api/sync]"
      ],
      "transaction": {
        "from": "0x4c08d39f511b9d20b3ca9f62959e6c1a3dd50910",
        "to": "0x14934ed5cf8c816721ffb0ceede8c409bb9d010e",
        "gas": "0x110a02",
        "value": "0x0",
        "input": "0xf728d0cc000000000000000000000000000000000000000000000000000000000000014000000000000000000000000000000000000000000000000000000000000151800000000000000000000000000000000000000000000000000000000000015180000000000000000000000000000000000000000000000000000000000001518000000000000000000000000000000000000000000000000000000000000000000000000000000000000000000000000000000000000000000000000000001770000000000000000000000000f0830060f836b8d54bf02049e5905f619487989e0000000000000000000000000000000000000000000000000000000000000183000000000000000000000000000000000000000000000000000000000000018000000000000000000000000000000000000000000000000000000000000002a000000000000000000000000000000000000000000000000000000000000000086c6573736361727300000000000000000000000000000000000000000000000000000000000000000000000000000000000000000000000000000000000000f168747470733a2f2f7777772e62696e672e636f6d2f636b2f613f212626703d393166616639336231383463666162386535393835313530623832346666313265663233373835373035643638383737323464633566333131373232303438364a6d6c7464484d394d5463314d5445314e5449774d412670746e3d33267665723d32266873683d342666636c69643d30313566636230632d626165362d366436362d303338642d646532336262396636633562267073713d667765727261726926753d61316148523063484d364c793933643363755a6d5679636d46796153356a623230765a573474525534266e74623d31000000000000000000000000000000000000000000000000000000000000000000000000000000000000000000000100000000000000000000000000000000000000000000000000000000000000200000000000000000000000000000000000000000000000000000000000000023687474703a2f2f31332e3232322e3231362e3136393a383038302f6170692f73796e630000000000000000000000000000000000000000000000000000000000",
        "nonce": "0xbe",
        "chainId": "0x14a34"
      },
      "additionalContracts": [],
      "isFixedGasLimit": false
    }
  ],
  "receipts": [
    {
      "status": "0x1",
      "cumulativeGasUsed": "0x9b5f29",
      "logs": [
        {
          "address": "0x14934ed5cf8c816721ffb0ceede8c409bb9d010e",
          "topics": [
            "0x51ed095dc92de58de4993a54d3312f43ef5979c66af9b47011e13e06114d0104"
          ],
          "data": "0x000000000000000000000000fd2e0998d4285e890d8d4c8a76412e71ea2439b5",
          "blockHash": "0xf7645899e009172f601dc1bd3b7fbef56251e22b696cf02e6a8ba8b2df13fbc1",
          "blockNumber": "0x1a790a5",
          "transactionHash": "0x1ab1dfcf3802d1c0355fc5b265df5d288c8dcd0f14f8e3d3753db3f61face063",
          "transactionIndex": "0x1d",
          "logIndex": "0x111",
          "removed": false
        }
      ],
      "logsBloom": "0x00000000000040000000000000000000000000000000000000000000000000000000000000000002000000000000000000000000000000000000000000000000000000000000000000000000000000000000000000000000000001000000000000000000000000000000000000000000000000200000000000000000000000000000000000000000000000000000000000000000000000000000000000000000000000000000000000000100000000000000000000000000000000000000000000000000000000000000000000000000000200000000000000000000000000000000000000000000000000000000000000000000000000000000000000000000",
      "type": "0x2",
      "transactionHash": "0x1ab1dfcf3802d1c0355fc5b265df5d288c8dcd0f14f8e3d3753db3f61face063",
      "transactionIndex": "0x1d",
      "blockHash": "0xf7645899e009172f601dc1bd3b7fbef56251e22b696cf02e6a8ba8b2df13fbc1",
      "blockNumber": "0x1a790a5",
      "gasUsed": "0x91e3",
      "effectiveGasPrice": "0xf42fd",
      "from": "0x4c08d39f511b9d20b3ca9f62959e6c1a3dd50910",
      "to": "0x14934ed5cf8c816721ffb0ceede8c409bb9d010e",
      "contractAddress": null,
      "l1BaseFeeScalar": "0x44d",
      "l1BlobBaseFee": "0x1",
      "l1BlobBaseFeeScalar": "0xa118b",
      "l1Fee": "0x3c6563",
      "l1GasPrice": "0x2248c1",
      "l1GasUsed": "0x640"
    },
    {
      "status": "0x1",
      "cumulativeGasUsed": "0x10db599",
      "logs": [
        {
          "address": "0xfac44c030703b25911df1627824ad7303e78d491",
          "topics": [
            "0xbf50768ccf13bd0110ca6d53a9c4f1f3271abdd4c24a56878863ed25b20598ff",
            "0xc3fe28dd8a86db6a84d0cd09da4fdc9899648aaf6c3d583b3d7ced0a9a45296e",
            "0x000000000000000000000000fd2e0998d4285e890d8d4c8a76412e71ea2439b5"
          ],
          "data": "0x0000000000000000000000004c08d39f511b9d20b3ca9f62959e6c1a3dd509100000000000000000000000000000000000000000000000000000000000000183000000000000000000000000f0830060f836b8d54bf02049e5905f619487989e00000000000000000000000000000000000000000000000000000000000002400000000000000000000000000000000000000000000000000000000000000001000000000000000000000000000000000000000000000000000000000000000000000000000000000000000000000000000000000000000000000000000493e0c3fe28dd8a86db6a84d0cd09da4fdc9899648aaf6c3d583b3d7ced0a9a45296e000000000000000000000000fac44c030703b25911df1627824ad7303e78d4910000000000000000000000000000000000000000000000000a15b35613fb67f3000000000000000000000000fd2e0998d4285e890d8d4c8a76412e71ea2439b5000000000000000000000000000000000000000000000000000000000000018300000000000000000000000000000000000000000000000000000000000493e0000000000000000000000000000000000000000000000000035b6b5f7c50a82e00000000000000000000000000000000000000000000000000000000000000000000000000000000000000000000000000000000000000000000000000027eac000000000000000000000000000000000000000000000000000000000000dea8000000000000000000000000000000000000000000000000000000006862815600000000000000000000000000000000000000000000000000000000000001ce6c636f64654c6f636174696f6ec258200000000000000000000000000000000000000000000000000000000000000000686c616e6775616765c25820000000000000000000000000000000000000000000000000000000000000000066736f7572636579013c636f6e73742075726c203d20617267735b305d3b636f6e737420617069526573706f6e7365203d2061776169742046756e6374696f6e732e6d616b654874747052657175657374287b75726c3a2060247b75726c7d607d293b69662028617069526573706f6e73652e6572726f7229207b636f6e736f6c652e6572726f7228617069526573706f6e73652e6572726f72293b7468726f77204572726f72282753796e632052657175657374206661696c656427293b7d636f6e7374207b2064617461207d203d20617069526573706f6e73653b636f6e736f6c652e6c6f67282741504920726573706f6e736520646174613a272c204a534f4e2e737472696e6769667928646174612c206e756c6c2c203229293b72657475726e2046756e6374696f6e732e656e636f6465537472696e6728646174612e636964293b64617267739f7823687474703a2f2f31332e3232322e3231362e3136393a383038302f6170692f73796e63ff000000000000000000000000000000000000",
          "blockHash": "0xf7645899e009172f601dc1bd3b7fbef56251e22b696cf02e6a8ba8b2df13fbc1",
          "blockNumber": "0x1a790a5",
          "transactionHash": "0xd528cef8cc86be698df6595be2d8ae926eb36472f9ddfe583a1a85fcc30e2dea",
          "transactionIndex": "0x29",
          "logIndex": "0x17c",
          "removed": false
        },
        {
          "address": "0xf9b8fc078197181c841c296c876945aaa425b278",
          "topics": [
            "0xf67aec45c9a7ede407974a3e0c3a743dffeab99ee3f2d4c9a8144c2ebf2c7ec9",
            "0xc3fe28dd8a86db6a84d0cd09da4fdc9899648aaf6c3d583b3d7ced0a9a45296e",
            "0x66756e2d626173652d7365706f6c69612d310000000000000000000000000000",
            "0x0000000000000000000000000000000000000000000000000000000000000183"
          ],
          "data": "0x000000000000000000000000f0830060f836b8d54bf02049e5905f619487989e000000000000000000000000fd2e0998d4285e890d8d4c8a76412e71ea2439b50000000000000000000000004c08d39f511b9d20b3ca9f62959e6c1a3dd5091000000000000000000000000000000000000000000000000000000000000000e0000000000000000000000000000000000000000000000000000000000000000100000000000000000000000000000000000000000000000000000000000493e00000000000000000000000000000000000000000000000000a15b35613fb67f300000000000000000000000000000000000000000000000000000000000001ce6c636f64654c6f636174696f6ec258200000000000000000000000000000000000000000000000000000000000000000686c616e6775616765c25820000000000000000000000000000000000000000000000000000000000000000066736f7572636579013c636f6e73742075726c203d20617267735b305d3b636f6e737420617069526573706f6e7365203d2061776169742046756e6374696f6e732e6d616b654874747052657175657374287b75726c3a2060247b75726c7d607d293b69662028617069526573706f6e73652e6572726f7229207b636f6e736f6c652e6572726f7228617069526573706f6e73652e6572726f72293b7468726f77204572726f72282753796e632052657175657374206661696c656427293b7d636f6e7374207b2064617461207d203d20617069526573706f6e73653b636f6e736f6c652e6c6f67282741504920726573706f6e736520646174613a272c204a534f4e2e737472696e6769667928646174612c206e756c6c2c203229293b72657475726e2046756e6374696f6e732e656e636f6465537472696e6728646174612e636964293b64617267739f7823687474703a2f2f31332e3232322e3231362e3136393a383038302f6170692f73796e63ff000000000000000000000000000000000000",
          "blockHash": "0xf7645899e009172f601dc1bd3b7fbef56251e22b696cf02e6a8ba8b2df13fbc1",
          "blockNumber": "0x1a790a5",
          "transactionHash": "0xd528cef8cc86be698df6595be2d8ae926eb36472f9ddfe583a1a85fcc30e2dea",
          "transactionIndex": "0x29",
          "logIndex": "0x17d",
          "removed": false
        },
        {
          "address": "0xfd2e0998d4285e890d8d4c8a76412e71ea2439b5",
          "topics": [
            "0x1131472297a800fee664d1d89cfa8f7676ff07189ecc53f80bbb5f4969099db8",
            "0xc3fe28dd8a86db6a84d0cd09da4fdc9899648aaf6c3d583b3d7ced0a9a45296e"
          ],
          "data": "0x",
          "blockHash": "0xf7645899e009172f601dc1bd3b7fbef56251e22b696cf02e6a8ba8b2df13fbc1",
          "blockNumber": "0x1a790a5",
          "transactionHash": "0xd528cef8cc86be698df6595be2d8ae926eb36472f9ddfe583a1a85fcc30e2dea",
          "transactionIndex": "0x29",
          "logIndex": "0x17e",
          "removed": false
        },
        {
          "address": "0x14934ed5cf8c816721ffb0ceede8c409bb9d010e",
          "topics": [
            "0x3ac9890522326ca5c08487b1170da82dd731329aacdba9c8fa96c258a7b6b34e"
          ],
          "data": "0x0000000000000000000000000000000000000000000000000000000000000040c3fe28dd8a86db6a84d0cd09da4fdc9899648aaf6c3d583b3d7ced0a9a45296e00000000000000000000000000000000000000000000000000000000000000086c65737363617273000000000000000000000000000000000000000000000000",
          "blockHash": "0xf7645899e009172f601dc1bd3b7fbef56251e22b696cf02e6a8ba8b2df13fbc1",
          "blockNumber": "0x1a790a5",
          "transactionHash": "0xd528cef8cc86be698df6595be2d8ae926eb36472f9ddfe583a1a85fcc30e2dea",
          "transactionIndex": "0x29",
          "logIndex": "0x17f",
          "removed": false
        }
      ],
      "logsBloom": "0x01040000000040800080004000000000000000800014000000000000000000000000000000000000000000000000000000008000000000000000000000000002000000000000000000000000000000000800000000000000000000000000020000000000000000000000000000000000000000008000002080000000000000000000000000000000000000000000000000000000000000000000001000000000000000000008000000000140000000000000100004000000000080000000000044000000000000000080000800000008000200080000020200000000000100000000000000000400000000000000000000000000010000000000000000200000",
      "type": "0x2",
      "transactionHash": "0xd528cef8cc86be698df6595be2d8ae926eb36472f9ddfe583a1a85fcc30e2dea",
      "transactionIndex": "0x29",
      "blockHash": "0xf7645899e009172f601dc1bd3b7fbef56251e22b696cf02e6a8ba8b2df13fbc1",
      "blockNumber": "0x1a790a5",
      "gasUsed": "0xc5604",
      "effectiveGasPrice": "0xf42fd",
      "from": "0x4c08d39f511b9d20b3ca9f62959e6c1a3dd50910",
      "to": "0x14934ed5cf8c816721ffb0ceede8c409bb9d010e",
      "contractAddress": null,
      "l1BaseFeeScalar": "0x44d",
      "l1BlobBaseFee": "0x1",
      "l1BlobBaseFeeScalar": "0xa118b",
      "l1Fee": "0xf1084b",
      "l1GasPrice": "0x2248c1",
      "l1GasUsed": "0x18f1"
    }
  ],
  "libraries": [],
  "pending": [],
  "returns": {},
  "timestamp": 1751285803,
  "chain": 84532,
  "commit": "8d44896"
}