{
  "transactions": [
    {
      "hash": "0x237543719a8969d62c26c0734de8f6b6a26a61961db0c570d45bf06437557535",
      "transactionType": "CALL",
      "contractName": null,
      "contractAddress": "0x42a91118efe984a399b2ffa699e7f501099d804b",
      "function": "setInitFunction(address)",
      "arguments": [
        "0xfd2E0998d4285E890d8D4C8a76412e71ea2439B5"
      ],
      "transaction": {
        "from": "0x4c08d39f511b9d20b3ca9f62959e6c1a3dd50910",
        "to": "0x42a91118efe984a399b2ffa699e7f501099d804b",
        "gas": "0xb55d",
        "value": "0x0",
        "input": "0xfa5ed5c9000000000000000000000000fd2e0998d4285e890d8d4c8a76412e71ea2439b5",
        "nonce": "0x171",
        "chainId": "0x14a34"
      },
      "additionalContracts": [],
      "isFixedGasLimit": false
    },
    {
      "hash": "0x3c72da540d07b64bc6708b618415fe6b18f8a2f9bfb065664a44b1f0140203ea",
      "transactionType": "CALL",
      "contractName": null,
      "contractAddress": "0xffb5e064e2c711a21194c93d8004d12dce6c86e3",
      "function": "grantPermission(address,bytes4,uint256)",
      "arguments": [
        "0x42A91118Efe984A399B2FFA699e7F501099d804b",
        "0xee824d66",
        "1782916530"
      ],
      "transaction": {
        "from": "0x4c08d39f511b9d20b3ca9f62959e6c1a3dd50910",
        "to": "0xffb5e064e2c711a21194c93d8004d12dce6c86e3",
        "gas": "0xfb56",
        "value": "0x0",
        "input": "0x1cfa4de400000000000000000000000042a91118efe984a399b2ffa699e7f501099d804bee824d6600000000000000000000000000000000000000000000000000000000000000000000000000000000000000000000000000000000000000006a4525b2",
        "nonce": "0x172",
        "chainId": "0x14a34"
      },
      "additionalContracts": [],
      "isFixedGasLimit": false
    },
    {
      "hash": "0x3d0abe112bf9d9487973da2175003a384421f2f0a39e4b150a0df0979220a6cb",
      "transactionType": "CALL",
      "contractName": null,
      "contractAddress": "0xffb5e064e2c711a21194c93d8004d12dce6c86e3",
      "function": "grantPermission(address,bytes4,uint256)",
      "arguments": [
        "0x42A91118Efe984A399B2FFA699e7F501099d804b",
        "0xb0251c84",
        "1782916530"
      ],
      "transaction": {
        "from": "0x4c08d39f511b9d20b3ca9f62959e6c1a3dd50910",
        "to": "0xffb5e064e2c711a21194c93d8004d12dce6c86e3",
        "gas": "0xfb56",
        "value": "0x0",
        "input": "0x1cfa4de400000000000000000000000042a91118efe984a399b2ffa699e7f501099d804bb0251c8400000000000000000000000000000000000000000000000000000000000000000000000000000000000000000000000000000000000000006a4525b2",
        "nonce": "0x173",
        "chainId": "0x14a34"
      },
      "additionalContracts": [],
      "isFixedGasLimit": false
    },
    {
      "hash": "0x4166b39dc4f24fe9c37c61218df75cbe40230043b8341c9598184f3824665e5c",
      "transactionType": "CALL",
      "contractName": null,
      "contractAddress": "0x33a7764ec19f489649f2e3c9ef8c29a72656c5cb",
      "function": "setRegistry(address)",
      "arguments": [
        "0x42A91118Efe984A399B2FFA699e7F501099d804b"
      ],
      "transaction": {
        "from": "0x4c08d39f511b9d20b3ca9f62959e6c1a3dd50910",
        "to": "0x33a7764ec19f489649f2e3c9ef8c29a72656c5cb",
        "gas": "0x99af",
        "value": "0x0",
        "input": "0xa91ee0dc00000000000000000000000042a91118efe984a399b2ffa699e7f501099d804b",
        "nonce": "0x174",
        "chainId": "0x14a34"
      },
      "additionalContracts": [],
      "isFixedGasLimit": false
    },
    {
      "hash": "0x3e62ba822a60ac7985af629a51696ce7a3749b4519433c1e379e1845a1383948",
      "transactionType": "CALL",
      "contractName": null,
      "contractAddress": "0x42a91118efe984a399b2ffa699e7f501099d804b",
      "function": "registerBrand(string,(uint256,uint256,uint256,uint256,uint256),address,uint64,string,string[])",
      "arguments": [
        "lesscars12",
        "(86400, 500, 86400, 0, 6000)",
        "0xccfC47DaC852fa570f2D92D198fD45177B12280b",
        "387",
        "https://www.bing.com/ck/a?!&&p=91faf93b184cfab8e5985150b824ff12ef23785705d6887724dc5f3117220486JmltdHM9MTc1MTE1NTIwMA&ptn=3&ver=2&hsh=4&fclid=015fcb0c-bae6-6d66-038d-de23bb9f6c5b&psq=fwerrari&u=a1aHR0cHM6Ly93d3cuZmVycmFyaS5jb20vZW4tRU4&ntb=1",
        "[http://13.222.216.169:8080/api/sync]"
      ],
      "transaction": {
        "from": "0x4c08d39f511b9d20b3ca9f62959e6c1a3dd50910",
        "to": "0x42a91118efe984a399b2ffa699e7f501099d804b",
        "gas": "0x10ade0",
        "value": "0x0",
        "input": "0xf728d0cc0000000000000000000000000000000000000000000000000000000000000140000000000000000000000000000000000000000000000000000000000001518000000000000000000000000000000000000000000000000000000000000001f4000000000000000000000000000000000000000000000000000000000001518000000000000000000000000000000000000000000000000000000000000000000000000000000000000000000000000000000000000000000000000000001770000000000000000000000000ccfc47dac852fa570f2d92d198fd45177b12280b0000000000000000000000000000000000000000000000000000000000000183000000000000000000000000000000000000000000000000000000000000018000000000000000000000000000000000000000000000000000000000000002a0000000000000000000000000000000000000000000000000000000000000000a6c6573736361727331320000000000000000000000000000000000000000000000000000000000000000000000000000000000000000000000000000000000f168747470733a2f2f7777772e62696e672e636f6d2f636b2f613f212626703d393166616639336231383463666162386535393835313530623832346666313265663233373835373035643638383737323464633566333131373232303438364a6d6c7464484d394d5463314d5445314e5449774d412670746e3d33267665723d32266873683d342666636c69643d30313566636230632d626165362d366436362d303338642d646532336262396636633562267073713d667765727261726926753d61316148523063484d364c793933643363755a6d5679636d46796153356a623230765a573474525534266e74623d31000000000000000000000000000000000000000000000000000000000000000000000000000000000000000000000100000000000000000000000000000000000000000000000000000000000000200000000000000000000000000000000000000000000000000000000000000023687474703a2f2f31332e3232322e3231362e3136393a383038302f6170692f73796e630000000000000000000000000000000000000000000000000000000000",
        "nonce": "0x175",
        "chainId": "0x14a34"
      },
      "additionalContracts": [],
      "isFixedGasLimit": false
    },
    {
      "hash": "0xdd1f3e67d108e4b684746458d9a4468f33643ca5b033692c371165b726bcaf43",
      "transactionType": "CALL",
      "contractName": null,
      "contractAddress": "0x42a91118efe984a399b2ffa699e7f501099d804b",
      "function": "stake(string)",
      "arguments": [
        "lesscars12"
      ],
      "transaction": {
        "from": "0x4c08d39f511b9d20b3ca9f62959e6c1a3dd50910",
        "to": "0x42a91118efe984a399b2ffa699e7f501099d804b",
        "gas": "0x2b873",
        "value": "0x2e90edd000",
        "input": "0x46f45b8d0000000000000000000000000000000000000000000000000000000000000020000000000000000000000000000000000000000000000000000000000000000a6c65737363617273313200000000000000000000000000000000000000000000",
        "nonce": "0x176",
        "chainId": "0x14a34"
      },
      "additionalContracts": [],
      "isFixedGasLimit": false
    },
    {
      "hash": "0x9ba2c3d0b3a852a889f6e090e95703d4c1fb9d913880293f141512200008fb0b",
      "transactionType": "CALL",
      "contractName": null,
      "contractAddress": "0x42a91118efe984a399b2ffa699e7f501099d804b",
      "function": "activate(string)",
      "arguments": [
        "lesscars12"
      ],
      "transaction": {
        "from": "0x4c08d39f511b9d20b3ca9f62959e6c1a3dd50910",
        "to": "0x42a91118efe984a399b2ffa699e7f501099d804b",
        "gas": "0x1fd9bb",
        "value": "0x0",
        "input": "0x1917ab5c0000000000000000000000000000000000000000000000000000000000000020000000000000000000000000000000000000000000000000000000000000000a6c65737363617273313200000000000000000000000000000000000000000000",
        "nonce": "0x177",
        "chainId": "0x14a34"
      },
      "additionalContracts": [
        {
          "transactionType": "CREATE",
          "address": "0xb4df29524f867a81d75c9ddac5a0233fda99cb53",
          "initCode": "0x3d602d80600a3d3981f3363d3d373d3d3d363d736bd35916d01519bb6e44b8e3f177ce7fa06b7ef95af43d82803e903d91602b57fd5bf3"
        },
        {
          "transactionType": "CREATE",
          "address": "0x252028e5c56e8146f171dd8de703656c89c1ef53",
          "initCode": "0x3d602d80600a3d3981f3363d3d373d3d3d363d7368e68cdc93f42e7526ed6e0a0d72057d91c65ed15af43d82803e903d91602b57fd5bf3"
        },
        {
          "transactionType": "CREATE",
          "address": "0xcd35b6f5d4572248a3fea1db47f2034bfc999c64",
          "initCode": "0x3d602d80600a3d3981f3363d3d373d3d3d363d73bc9f952cd96031ad3ad62902fbb8385cf41839375af43d82803e903d91602b57fd5bf3"
        },
        {
          "transactionType": "CREATE",
          "address": "0x346889e6f69ace175a3fd2870180756229bac41c",
          "initCode": "0x3d602d80600a3d3981f3363d3d373d3d3d363d730f6d3acf759670e247242efc8282a740e81d468c5af43d82803e903d91602b57fd5bf3"
        },
        {
          "transactionType": "CREATE",
          "address": "0x7a75d71d922f2360ab76f2cafa43f6d7d74255d5",
          "initCode": "0x3d602d80600a3d3981f3363d3d373d3d3d363d7389a65dfc88f2efc06057f65d8bdb8eb61a1181965af43d82803e903d91602b57fd5bf3"
        },
        {
          "transactionType": "CREATE",
          "address": "0xcfcdccdf010988a1d477387211cb32e1cf2e663b",
          "initCode": "0x3d602d80600a3d3981f3363d3d373d3d3d363d73829fffd8976306600460ca59519cdeb0ac03c6b05af43d82803e903d91602b57fd5bf3"
        }
      ],
      "isFixedGasLimit": false
    }
  ],
  "receipts": [
    {
      "status": "0x1",
      "cumulativeGasUsed": "0x1304f",
      "logs": [
        {
          "address": "0x42a91118efe984a399b2ffa699e7f501099d804b",
          "topics": [
            "0x51ed095dc92de58de4993a54d3312f43ef5979c66af9b47011e13e06114d0104"
          ],
          "data": "0x000000000000000000000000fd2e0998d4285e890d8d4c8a76412e71ea2439b5",
          "blockHash": "0xe90c4fe9621f5fd03cd5179e7f4a5b7f1347b3d1e9cd8da932094b091bb80182",
          "blockNumber": "0x1a849dc",
          "transactionHash": "0x237543719a8969d62c26c0734de8f6b6a26a61961db0c570d45bf06437557535",
          "transactionIndex": "0x1",
          "logIndex": "0x0",
          "removed": false
        }
      ],
      "logsBloom": "0x00000000000000000000000000000000000000000000000000010000000000000000000000000002000000000000002000000000000000000000000000000000000000000000000000000000000000000000000000000000000001000000000000000000000000000000000000000000000000200000020000000000000000000000000000000000000000000000000000000000000000000000000000000000000000000000000000000000000000000000000000000000000000000000000000000000000000000000000000000000000000000000000000000000000000000000000000000000000000000000000000000000000000000000000000000000",
      "type": "0x2",
      "transactionHash": "0x237543719a8969d62c26c0734de8f6b6a26a61961db0c570d45bf06437557535",
      "transactionIndex": "0x1",
      "blockHash": "0xe90c4fe9621f5fd03cd5179e7f4a5b7f1347b3d1e9cd8da932094b091bb80182",
      "blockNumber": "0x1a849dc",
      "gasUsed": "0x7c03",
      "effectiveGasPrice": "0xf44cb",
      "from": "0x4c08d39f511b9d20b3ca9f62959e6c1a3dd50910",
      "to": "0x42a91118efe984a399b2ffa699e7f501099d804b",
      "contractAddress": null,
      "l1BaseFeeScalar": "0x44d",
      "l1BlobBaseFee": "0x1",
      "l1BlobBaseFeeScalar": "0xa118b",
      "l1Fee": "0x106096af15",
      "l1GasPrice": "0x94bfd2e76",
      "l1GasUsed": "0x640"
    },
    {
      "status": "0x1",
      "cumulativeGasUsed": "0xf76d5",
      "logs": [
        {
          "address": "0xffb5e064e2c711a21194c93d8004d12dce6c86e3",
          "topics": [
            "0x1554fb9795b486e717245df21d05fdbe91f14c98ddc6ab8081503b6c1d21512f",
            "0x00000000000000000000000042a91118efe984a399b2ffa699e7f501099d804b",
            "0xee824d6600000000000000000000000000000000000000000000000000000000"
          ],
          "data": "0x000000000000000000000000000000000000000000000000000000006a4525b2000000000000000000000000000000000000000000000000000000006863f298",
          "blockHash": "0x2b27f315df77e85f242c6f82ac84ed5a53dd33ff36fe95034dd2f71e17b13e89",
          "blockNumber": "0x1a849dc",
          "blockTimestamp": "0x6863f298",
          "transactionHash": "0x3c72da540d07b64bc6708b618415fe6b18f8a2f9bfb065664a44b1f0140203ea",
          "transactionIndex": "0x8",
          "logIndex": "0x14",
          "removed": false
        }
      ],
      "logsBloom": "0x00000000000000000000000040000000000000000000000000000000000000000000000000000020000000000000000000000000000200000000000000000000000000000000800200000000000000000000000000000000000000000000000000000800000000000000000000000000000000000000002000000000000000000000000000000000000000000000000000000000000000000000020000000000000000000000000000000002400000000000000000000000000000000000020000000200000000000000000000000000000000000000000000000000000000000000000000000000000000000000000000000000000000000000000000000000",
      "type": "0x2",
      "transactionHash": "0x3c72da540d07b64bc6708b618415fe6b18f8a2f9bfb065664a44b1f0140203ea",
      "transactionIndex": "0x8",
      "blockHash": "0x2b27f315df77e85f242c6f82ac84ed5a53dd33ff36fe95034dd2f71e17b13e89",
      "blockNumber": "0x1a849dc",
      "gasUsed": "0xabdb",
      "effectiveGasPrice": "0xf4628",
      "from": "0x4c08d39f511b9d20b3ca9f62959e6c1a3dd50910",
      "to": "0xffb5e064e2c711a21194c93d8004d12dce6c86e3",
      "contractAddress": null,
      "l1BaseFeeScalar": "0x44d",
      "l1BlobBaseFee": "0x1",
      "l1BlobBaseFeeScalar": "0xa118b",
      "l1Fee": "0x106096af15",
      "l1GasPrice": "0x94bfd2e76",
      "l1GasUsed": "0x640"
    },
    {
      "status": "0x1",
      "cumulativeGasUsed": "0x1022b0",
      "logs": [
        {
          "address": "0xffb5e064e2c711a21194c93d8004d12dce6c86e3",
          "topics": [
            "0x1554fb9795b486e717245df21d05fdbe91f14c98ddc6ab8081503b6c1d21512f",
            "0x00000000000000000000000042a91118efe984a399b2ffa699e7f501099d804b",
            "0xb0251c8400000000000000000000000000000000000000000000000000000000"
          ],
          "data": "0x000000000000000000000000000000000000000000000000000000006a4525b2000000000000000000000000000000000000000000000000000000006863f298",
          "blockHash": "0x2b27f315df77e85f242c6f82ac84ed5a53dd33ff36fe95034dd2f71e17b13e89",
          "blockNumber": "0x1a849dc",
          "blockTimestamp": "0x6863f298",
          "transactionHash": "0x3d0abe112bf9d9487973da2175003a384421f2f0a39e4b150a0df0979220a6cb",
          "transactionIndex": "0x9",
          "logIndex": "0x15",
          "removed": false
        }
      ],
      "logsBloom": "0x00000000000000000000000040000400000000000000000000000000000000000000000000100020000000000000000000000000000200000000000000000000000000000000000200000000000000000000000000000000000000000000000000000800000200000000000000000000000000000000002000000000000000000000000000000000000000000000000000000000000000000000020000000000000000000000000000000002000000000000000000000000000000000000020000000000000000000000000000000000000000000000000000000000000000000000000000000000000000000000000000000000000000000000000000000000",
      "type": "0x2",
      "transactionHash": "0x3d0abe112bf9d9487973da2175003a384421f2f0a39e4b150a0df0979220a6cb",
      "transactionIndex": "0x9",
      "blockHash": "0x2b27f315df77e85f242c6f82ac84ed5a53dd33ff36fe95034dd2f71e17b13e89",
      "blockNumber": "0x1a849dc",
      "gasUsed": "0xabdb",
      "effectiveGasPrice": "0xf4628",
      "from": "0x4c08d39f511b9d20b3ca9f62959e6c1a3dd50910",
      "to": "0xffb5e064e2c711a21194c93d8004d12dce6c86e3",
      "contractAddress": null,
      "l1BaseFeeScalar": "0x44d",
      "l1BlobBaseFee": "0x1",
      "l1BlobBaseFeeScalar": "0xa118b",
      "l1Fee": "0x106096af15",
      "l1GasPrice": "0x94bfd2e76",
      "l1GasUsed": "0x640"
    },
    {
      "status": "0x1",
      "cumulativeGasUsed": "0x1091f4",
      "logs": [
        {
          "address": "0x33a7764ec19f489649f2e3c9ef8c29a72656c5cb",
          "topics": [
            "0x4f6537fa52739b7c9ef41f390e437aedcfc0002e9a8c219fb048f518987006bf"
          ],
          "data": "0x00000000000000000000000042a91118efe984a399b2ffa699e7f501099d804b",
          "blockHash": "0x2b27f315df77e85f242c6f82ac84ed5a53dd33ff36fe95034dd2f71e17b13e89",
          "blockNumber": "0x1a849dc",
          "blockTimestamp": "0x6863f298",
          "transactionHash": "0x4166b39dc4f24fe9c37c61218df75cbe40230043b8341c9598184f3824665e5c",
          "transactionIndex": "0xa",
          "logIndex": "0x16",
          "removed": false
        }
      ],
      "logsBloom": "0x00400000000000000000000000020000000000000000000000000000000000000000000000000000800000000000000000020000000000000000000000000000000000000000000000000000000000040000000000000000000000000000000000000000000000000000000000000000000000000000000080000000000000000000000000000000000000000000000000000000000000000000000000000000000000000000000000000000000000000000000000000000000000000000000000000000000000000000000000000000000000000000000000000000000000000000000000000000000000000000000000000000000000000000000000000000",
      "type": "0x2",
      "transactionHash": "0x4166b39dc4f24fe9c37c61218df75cbe40230043b8341c9598184f3824665e5c",
      "transactionIndex": "0xa",
      "blockHash": "0x2b27f315df77e85f242c6f82ac84ed5a53dd33ff36fe95034dd2f71e17b13e89",
      "blockNumber": "0x1a849dc",
      "gasUsed": "0x6f44",
      "effectiveGasPrice": "0xf4628",
      "from": "0x4c08d39f511b9d20b3ca9f62959e6c1a3dd50910",
      "to": "0x33a7764ec19f489649f2e3c9ef8c29a72656c5cb",
      "contractAddress": null,
      "l1BaseFeeScalar": "0x44d",
      "l1BlobBaseFee": "0x1",
      "l1BlobBaseFeeScalar": "0xa118b",
      "l1Fee": "0x106096af15",
      "l1GasPrice": "0x94bfd2e76",
      "l1GasUsed": "0x640"
    },
    {
      "status": "0x1",
      "cumulativeGasUsed": "0x1ca544",
      "logs": [
        {
          "address": "0xfac44c030703b25911df1627824ad7303e78d491",
          "topics": [
            "0xbf50768ccf13bd0110ca6d53a9c4f1f3271abdd4c24a56878863ed25b20598ff",
            "0x7b95e743e96f6a25048e0b1a2ab626f7db241848904188f18a486efb68514192",
            "0x000000000000000000000000fd2e0998d4285e890d8d4c8a76412e71ea2439b5"
          ],
          "data": "0x0000000000000000000000004c08d39f511b9d20b3ca9f62959e6c1a3dd509100000000000000000000000000000000000000000000000000000000000000183000000000000000000000000f0830060f836b8d54bf02049e5905f619487989e00000000000000000000000000000000000000000000000000000000000002400000000000000000000000000000000000000000000000000000000000000001000000000000000000000000000000000000000000000000000000000000000000000000000000000000000000000000000000000000000000000000000493e07b95e743e96f6a25048e0b1a2ab626f7db241848904188f18a486efb68514192000000000000000000000000fac44c030703b25911df1627824ad7303e78d4910000000000000000000000000000000000000000000000000a24f48f2dcaff27000000000000000000000000fd2e0998d4285e890d8d4c8a76412e71ea2439b5000000000000000000000000000000000000000000000000000000000000018300000000000000000000000000000000000000000000000000000000000493e000000000000000000000000000000000000000000000000003664ec8ef06eda000000000000000000000000000000000000000000000000000000000000000000000000000000000000000000000000000000000000000000000000000027eac000000000000000000000000000000000000000000000000000000000000dea8000000000000000000000000000000000000000000000000000000006863f3c400000000000000000000000000000000000000000000000000000000000001ce6c636f64654c6f636174696f6ec258200000000000000000000000000000000000000000000000000000000000000000686c616e6775616765c25820000000000000000000000000000000000000000000000000000000000000000066736f7572636579013c636f6e73742075726c203d20617267735b305d3b636f6e737420617069526573706f6e7365203d2061776169742046756e6374696f6e732e6d616b654874747052657175657374287b75726c3a2060247b75726c7d607d293b69662028617069526573706f6e73652e6572726f7229207b636f6e736f6c652e6572726f7228617069526573706f6e73652e6572726f72293b7468726f77204572726f72282753796e632052657175657374206661696c656427293b7d636f6e7374207b2064617461207d203d20617069526573706f6e73653b636f6e736f6c652e6c6f67282741504920726573706f6e736520646174613a272c204a534f4e2e737472696e6769667928646174612c206e756c6c2c203229293b72657475726e2046756e6374696f6e732e656e636f6465537472696e6728646174612e636964293b64617267739f7823687474703a2f2f31332e3232322e3231362e3136393a383038302f6170692f73796e63ff000000000000000000000000000000000000",
          "blockHash": "0x2b27f315df77e85f242c6f82ac84ed5a53dd33ff36fe95034dd2f71e17b13e89",
          "blockNumber": "0x1a849dc",
          "blockTimestamp": "0x6863f298",
          "transactionHash": "0x3e62ba822a60ac7985af629a51696ce7a3749b4519433c1e379e1845a1383948",
          "transactionIndex": "0xb",
          "logIndex": "0x17",
          "removed": false
        },
        {
          "address": "0xf9b8fc078197181c841c296c876945aaa425b278",
          "topics": [
            "0xf67aec45c9a7ede407974a3e0c3a743dffeab99ee3f2d4c9a8144c2ebf2c7ec9",
            "0x7b95e743e96f6a25048e0b1a2ab626f7db241848904188f18a486efb68514192",
            "0x66756e2d626173652d7365706f6c69612d310000000000000000000000000000",
            "0x0000000000000000000000000000000000000000000000000000000000000183"
          ],
          "data": "0x000000000000000000000000f0830060f836b8d54bf02049e5905f619487989e000000000000000000000000fd2e0998d4285e890d8d4c8a76412e71ea2439b50000000000000000000000004c08d39f511b9d20b3ca9f62959e6c1a3dd5091000000000000000000000000000000000000000000000000000000000000000e0000000000000000000000000000000000000000000000000000000000000000100000000000000000000000000000000000000000000000000000000000493e00000000000000000000000000000000000000000000000000a24f48f2dcaff2700000000000000000000000000000000000000000000000000000000000001ce6c636f64654c6f636174696f6ec258200000000000000000000000000000000000000000000000000000000000000000686c616e6775616765c25820000000000000000000000000000000000000000000000000000000000000000066736f7572636579013c636f6e73742075726c203d20617267735b305d3b636f6e737420617069526573706f6e7365203d2061776169742046756e6374696f6e732e6d616b654874747052657175657374287b75726c3a2060247b75726c7d607d293b69662028617069526573706f6e73652e6572726f7229207b636f6e736f6c652e6572726f7228617069526573706f6e73652e6572726f72293b7468726f77204572726f72282753796e632052657175657374206661696c656427293b7d636f6e7374207b2064617461207d203d20617069526573706f6e73653b636f6e736f6c652e6c6f67282741504920726573706f6e736520646174613a272c204a534f4e2e737472696e6769667928646174612c206e756c6c2c203229293b72657475726e2046756e6374696f6e732e656e636f6465537472696e6728646174612e636964293b64617267739f7823687474703a2f2f31332e3232322e3231362e3136393a383038302f6170692f73796e63ff000000000000000000000000000000000000",
          "blockHash": "0x2b27f315df77e85f242c6f82ac84ed5a53dd33ff36fe95034dd2f71e17b13e89",
          "blockNumber": "0x1a849dc",
          "blockTimestamp": "0x6863f298",
          "transactionHash": "0x3e62ba822a60ac7985af629a51696ce7a3749b4519433c1e379e1845a1383948",
          "transactionIndex": "0xb",
          "logIndex": "0x18",
          "removed": false
        },
        {
          "address": "0xfd2e0998d4285e890d8d4c8a76412e71ea2439b5",
          "topics": [
            "0x1131472297a800fee664d1d89cfa8f7676ff07189ecc53f80bbb5f4969099db8",
            "0x7b95e743e96f6a25048e0b1a2ab626f7db241848904188f18a486efb68514192"
          ],
          "data": "0x",
          "blockHash": "0x2b27f315df77e85f242c6f82ac84ed5a53dd33ff36fe95034dd2f71e17b13e89",
          "blockNumber": "0x1a849dc",
          "blockTimestamp": "0x6863f298",
          "transactionHash": "0x3e62ba822a60ac7985af629a51696ce7a3749b4519433c1e379e1845a1383948",
          "transactionIndex": "0xb",
          "logIndex": "0x19",
          "removed": false
        },
        {
          "address": "0x42a91118efe984a399b2ffa699e7f501099d804b",
          "topics": [
            "0x3ac9890522326ca5c08487b1170da82dd731329aacdba9c8fa96c258a7b6b34e"
          ],
          "data": "0x00000000000000000000000000000000000000000000000000000000000000407b95e743e96f6a25048e0b1a2ab626f7db241848904188f18a486efb68514192000000000000000000000000000000000000000000000000000000000000000a6c65737363617273313200000000000000000000000000000000000000000000",
          "blockHash": "0x2b27f315df77e85f242c6f82ac84ed5a53dd33ff36fe95034dd2f71e17b13e89",
          "blockNumber": "0x1a849dc",
          "blockTimestamp": "0x6863f298",
          "transactionHash": "0x3e62ba822a60ac7985af629a51696ce7a3749b4519433c1e379e1845a1383948",
          "transactionIndex": "0xb",
          "logIndex": "0x1a",
          "removed": false
        }
      ],
      "logsBloom": "0x01000000000000800080004000000000000000800014000000010000000000000000000000000000000000000000002000008000000000000000000000000002000000000000000400000000000000000800000000000000000000000000020000000000000000000000000000000000000000008000022080000000000000000000000000000000000000000000000000000000000000000000001000000000000000000008000000000040000000000000500004000000000080000000000044000000000000020080000800000008000000080000020000000000000000000000000000000400000000000000000000000000010000000000000000200000",
      "type": "0x2",
      "transactionHash": "0x3e62ba822a60ac7985af629a51696ce7a3749b4519433c1e379e1845a1383948",
      "transactionIndex": "0xb",
      "blockHash": "0x2b27f315df77e85f242c6f82ac84ed5a53dd33ff36fe95034dd2f71e17b13e89",
      "blockNumber": "0x1a849dc",
      "gasUsed": "0xc1350",
      "effectiveGasPrice": "0xf4628",
      "from": "0x4c08d39f511b9d20b3ca9f62959e6c1a3dd50910",
      "to": "0x42a91118efe984a399b2ffa699e7f501099d804b",
      "contractAddress": null,
      "l1BaseFeeScalar": "0x44d",
      "l1BlobBaseFee": "0x1",
      "l1BlobBaseFeeScalar": "0xa118b",
      "l1Fee": "0x436a1db254",
      "l1GasPrice": "0x94bfd2e76",
      "l1GasUsed": "0x19ba"
    },
    {
      "status": "0x1",
      "cumulativeGasUsed": "0x3f6d46",
      "logs": [
        {
          "address": "0x42a91118efe984a399b2ffa699e7f501099d804b",
          "topics": [
            "0x84aa2a725283b7498de506563a4325d5289c85269c3ba8da7c792a53d7fc556c"
          ],
          "data": "0x00000000000000000000000000000000000000000000000000000000000000400000000000000000000000004c08d39f511b9d20b3ca9f62959e6c1a3dd50910000000000000000000000000000000000000000000000000000000000000000a6c65737363617273313200000000000000000000000000000000000000000000",
          "blockHash": "0xe90c4fe9621f5fd03cd5179e7f4a5b7f1347b3d1e9cd8da932094b091bb80182",
          "blockNumber": "0x1a849dc",
          "transactionHash": "0xdd1f3e67d108e4b684746458d9a4468f33643ca5b033692c371165b726bcaf43",
          "transactionIndex": "0x17",
          "logIndex": "0x65",
          "removed": false
        }
      ],
      "logsBloom": "0x00000000000000000000000000000000000000000000000000010000000000000000000000000000000000000000002000000000000000000000000000000000000000000000800000000000000000000000000000000000000000000000000000000000000000000000000000000000000000000000020000000000000000000000000000000000000000008000000000000000000000000000000000000000000000000000000000000000000000000000000000000000000000000000000000000000000000000000000000000000000000000000000000000000000000000000000000000000000020000000000000000000000000000000000000000000",
      "type": "0x2",
      "transactionHash": "0xdd1f3e67d108e4b684746458d9a4468f33643ca5b033692c371165b726bcaf43",
      "transactionIndex": "0x17",
      "blockHash": "0xe90c4fe9621f5fd03cd5179e7f4a5b7f1347b3d1e9cd8da932094b091bb80182",
      "blockNumber": "0x1a849dc",
      "gasUsed": "0x1f838",
      "effectiveGasPrice": "0xf44cb",
      "from": "0x4c08d39f511b9d20b3ca9f62959e6c1a3dd50910",
      "to": "0x42a91118efe984a399b2ffa699e7f501099d804b",
      "contractAddress": null,
      "l1BaseFeeScalar": "0x44d",
      "l1BlobBaseFee": "0x1",
      "l1BlobBaseFeeScalar": "0xa118b",
      "l1Fee": "0x106096af15",
      "l1GasPrice": "0x94bfd2e76",
      "l1GasUsed": "0x640"
    },
    {
      "status": "0x1",
      "cumulativeGasUsed": "0x567c6e",
      "logs": [
        {
          "address": "0x10255361759b9c43360d5bcb56837e5c50cf192b",
          "topics": [
            "0x7e7da9a7e5d0e2868da0b53051bd9984eac62aed18ade7e0af67f05401b2929a"
          ],
          "data": "0x0000000000000000000000000000000000000000000000000000000000000020000000000000000000000000000000000000000000000000000000000000000a6c65737363617273313200000000000000000000000000000000000000000000",
          "blockHash": "0xe90c4fe9621f5fd03cd5179e7f4a5b7f1347b3d1e9cd8da932094b091bb80182",
          "blockNumber": "0x1a849dc",
          "transactionHash": "0x9ba2c3d0b3a852a889f6e090e95703d4c1fb9d913880293f141512200008fb0b",
          "transactionIndex": "0x18",
          "logIndex": "0x66",
          "removed": false
        },
        {
          "address": "0x7a75d71d922f2360ab76f2cafa43f6d7d74255d5",
          "topics": [
            "0x8be0079c531659141344cd1fd0a4f28419497f9722a3daafe3b4186f6b6457e0",
            "0x0000000000000000000000000000000000000000000000000000000000000000",
            "0x000000000000000000000000734a9d1004bf2b3b7f2b2d67a4ffddc249d4f77e"
          ],
          "data": "0x",
          "blockHash": "0xe90c4fe9621f5fd03cd5179e7f4a5b7f1347b3d1e9cd8da932094b091bb80182",
          "blockNumber": "0x1a849dc",
          "transactionHash": "0x9ba2c3d0b3a852a889f6e090e95703d4c1fb9d913880293f141512200008fb0b",
          "transactionIndex": "0x18",
          "logIndex": "0x67",
          "removed": false
        },
        {
          "address": "0x7a75d71d922f2360ab76f2cafa43f6d7d74255d5",
          "topics": [
            "0xc7f505b2f371ae2175ee4913f4499e1f2633a7b5936321eed1cdaeb6115181d2"
          ],
          "data": "0x0000000000000000000000000000000000000000000000000000000000000001",
          "blockHash": "0xe90c4fe9621f5fd03cd5179e7f4a5b7f1347b3d1e9cd8da932094b091bb80182",
          "blockNumber": "0x1a849dc",
          "transactionHash": "0x9ba2c3d0b3a852a889f6e090e95703d4c1fb9d913880293f141512200008fb0b",
          "transactionIndex": "0x18",
          "logIndex": "0x68",
          "removed": false
        },
        {
          "address": "0xcfcdccdf010988a1d477387211cb32e1cf2e663b",
          "topics": [
            "0x8be0079c531659141344cd1fd0a4f28419497f9722a3daafe3b4186f6b6457e0",
            "0x0000000000000000000000000000000000000000000000000000000000000000",
            "0x000000000000000000000000ccfc47dac852fa570f2d92d198fd45177b12280b"
          ],
          "data": "0x",
          "blockHash": "0xe90c4fe9621f5fd03cd5179e7f4a5b7f1347b3d1e9cd8da932094b091bb80182",
          "blockNumber": "0x1a849dc",
          "transactionHash": "0x9ba2c3d0b3a852a889f6e090e95703d4c1fb9d913880293f141512200008fb0b",
          "transactionIndex": "0x18",
          "logIndex": "0x69",
          "removed": false
        },
        {
          "address": "0xcfcdccdf010988a1d477387211cb32e1cf2e663b",
          "topics": [
            "0xc7f505b2f371ae2175ee4913f4499e1f2633a7b5936321eed1cdaeb6115181d2"
          ],
          "data": "0x0000000000000000000000000000000000000000000000000000000000000001",
          "blockHash": "0xe90c4fe9621f5fd03cd5179e7f4a5b7f1347b3d1e9cd8da932094b091bb80182",
          "blockNumber": "0x1a849dc",
          "transactionHash": "0x9ba2c3d0b3a852a889f6e090e95703d4c1fb9d913880293f141512200008fb0b",
          "transactionIndex": "0x18",
          "logIndex": "0x6a",
          "removed": false
        },
        {
          "address": "0x734a9d1004bf2b3b7f2b2d67a4ffddc249d4f77e",
          "topics": [
            "0xfcc808c4efde3b3bed8978ffdce7557fd869fa3fe0b123538ce53f805d7446f8",
            "0xf1843d10912d76e1e40c84a565e424cf61feb5c225856a7b7b2c782002dc7c04",
            "0x0000000000000000000000007a75d71d922f2360ab76f2cafa43f6d7d74255d5"
          ],
          "data": "0x0000000000000000000000000000000000000000000000000000000000000001000000000000000000000000000000000000000000000000000000006863f298",
          "blockHash": "0xe90c4fe9621f5fd03cd5179e7f4a5b7f1347b3d1e9cd8da932094b091bb80182",
          "blockNumber": "0x1a849dc",
          "transactionHash": "0x9ba2c3d0b3a852a889f6e090e95703d4c1fb9d913880293f141512200008fb0b",
          "transactionIndex": "0x18",
          "logIndex": "0x6b",
          "removed": false
        },
        {
          "address": "0x734a9d1004bf2b3b7f2b2d67a4ffddc249d4f77e",
          "topics": [
            "0x555b83d6c87fe088d565dd18f17fcf4d437a2efa917a7f0b111d680ed424366e",
            "0xf1843d10912d76e1e40c84a565e424cf61feb5c225856a7b7b2c782002dc7c04",
            "0x000000000000000000000000cfcdccdf010988a1d477387211cb32e1cf2e663b",
            "0x000000000000000000000000ccfc47dac852fa570f2d92d198fd45177b12280b"
          ],
          "data": "0x",
          "blockHash": "0xe90c4fe9621f5fd03cd5179e7f4a5b7f1347b3d1e9cd8da932094b091bb80182",
          "blockNumber": "0x1a849dc",
          "transactionHash": "0x9ba2c3d0b3a852a889f6e090e95703d4c1fb9d913880293f141512200008fb0b",
          "transactionIndex": "0x18",
          "logIndex": "0x6c",
          "removed": false
        },
        {
          "address": "0x33a7764ec19f489649f2e3c9ef8c29a72656c5cb",
          "topics": [
            "0x48cd04660754343a75aabc83899998826b6c3fc1c623d3cfb42bcd3e465cfa3c"
          ],
          "data": "0x000000000000000000000000000000000000000000000000000000000000004000000000000000000000000042a91118efe984a399b2ffa699e7f501099d804b000000000000000000000000000000000000000000000000000000000000000a6c65737363617273313200000000000000000000000000000000000000000000",
          "blockHash": "0xe90c4fe9621f5fd03cd5179e7f4a5b7f1347b3d1e9cd8da932094b091bb80182",
          "blockNumber": "0x1a849dc",
          "transactionHash": "0x9ba2c3d0b3a852a889f6e090e95703d4c1fb9d913880293f141512200008fb0b",
          "transactionIndex": "0x18",
          "logIndex": "0x6d",
          "removed": false
        },
        {
          "address": "0x42a91118efe984a399b2ffa699e7f501099d804b",
          "topics": [
            "0x7e4f0240facdc93ea495b531217c4297b7526bc3dbd11d95236c24e7950898a9"
          ],
          "data": "0x00000000000000000000000000000000000000000000000000000000000000400000000000000000000000000000000000000000000000000000000000000080000000000000000000000000000000000000000000000000000000000000000a6c657373636172733132000000000000000000000000000000000000000000000000000000000000000000000000000000000000000000000000000000000000",
          "blockHash": "0xe90c4fe9621f5fd03cd5179e7f4a5b7f1347b3d1e9cd8da932094b091bb80182",
          "blockNumber": "0x1a849dc",
          "transactionHash": "0x9ba2c3d0b3a852a889f6e090e95703d4c1fb9d913880293f141512200008fb0b",
          "transactionIndex": "0x18",
          "logIndex": "0x6e",
          "removed": false
        }
      ],
      "logsBloom": "0x024000000000000000000000006000010000000000000220008100000100000005200000000000000000000000000020800200000000000002000000001000002000000001000000000000000004004400010000100000000000000000000000000000002a0000000400500000000800002000000000020000000000000000400000001000000000000800008200000000000000000080400010000000000010040000220000000000000001200000000000100000000040000000000000000000000000000000000000000000000000010000000004000000000200000020000000000000000020000000000000000000000000000000010400000000000000",
      "type": "0x2",
      "transactionHash": "0x9ba2c3d0b3a852a889f6e090e95703d4c1fb9d913880293f141512200008fb0b",
      "transactionIndex": "0x18",
      "blockHash": "0xe90c4fe9621f5fd03cd5179e7f4a5b7f1347b3d1e9cd8da932094b091bb80182",
      "blockNumber": "0x1a849dc",
      "gasUsed": "0x170f28",
      "effectiveGasPrice": "0xf44cb",
      "from": "0x4c08d39f511b9d20b3ca9f62959e6c1a3dd50910",
      "to": "0x42a91118efe984a399b2ffa699e7f501099d804b",
      "contractAddress": null,
      "l1BaseFeeScalar": "0x44d",
      "l1BlobBaseFee": "0x1",
      "l1BlobBaseFeeScalar": "0xa118b",
      "l1Fee": "0x106096af15",
      "l1GasPrice": "0x94bfd2e76",
      "l1GasUsed": "0x640"
    }
  ],
  "libraries": [],
  "pending": [],
  "returns": {},
  "timestamp": 1751380632,
  "chain": 84532,
  "commit": "f70220b"
}