{
  "transactions": [
    {
      "hash": "0x6bdb7a0a2a48bba4ceb85708837aa2dc978085bb6a211267d8e18cd7eb6c87c8",
      "transactionType": "CALL",
      "contractName": null,
      "contractAddress": "0x42a91118efe984a399b2ffa699e7f501099d804b",
      "function": "setInitFunction(address)",
      "arguments": [
        "0xfd2E0998d4285E890d8D4C8a76412e71ea2439B5"
      ],
      "transaction": {
        "from": "0x4c08d39f511b9d20b3ca9f62959e6c1a3dd50910",
        "to": "0x42a91118efe984a399b2ffa699e7f501099d804b",
        "gas": "0x198bd",
        "value": "0x0",
        "input": "0xfa5ed5c9000000000000000000000000fd2e0998d4285e890d8d4c8a76412e71ea2439b5",
        "nonce": "0x15b",
        "chainId": "0x14a34"
      },
      "additionalContracts": [],
      "isFixedGasLimit": false
    },
    {
      "hash": null,
      "transactionType": "CALL",
      "contractName": null,
      "contractAddress": "0xffb5e064e2c711a21194c93d8004d12dce6c86e3",
      "function": "grantPermission(address,bytes4,uint256)",
      "arguments": [
        "0x42A91118Efe984A399B2FFA699e7F501099d804b",
        "0xee824d66",
        "1782871942"
      ],
      "transaction": {
        "from": "0x4c08d39f511b9d20b3ca9f62959e6c1a3dd50910",
        "to": "0xffb5e064e2c711a21194c93d8004d12dce6c86e3",
        "gas": "0x4ef7d",
        "value": "0x0",
        "input": "0x1cfa4de400000000000000000000000042a91118efe984a399b2ffa699e7f501099d804bee824d6600000000000000000000000000000000000000000000000000000000000000000000000000000000000000000000000000000000000000006a447786",
        "nonce": "0x15c",
        "chainId": "0x14a34"
      },
      "additionalContracts": [],
      "isFixedGasLimit": false
    },
    {
      "hash": null,
      "transactionType": "CALL",
      "contractName": null,
      "contractAddress": "0xffb5e064e2c711a21194c93d8004d12dce6c86e3",
      "function": "grantPermission(address,bytes4,uint256)",
      "arguments": [
        "0x42A91118Efe984A399B2FFA699e7F501099d804b",
        "0xb0251c84",
        "1782871942"
      ],
      "transaction": {
        "from": "0x4c08d39f511b9d20b3ca9f62959e6c1a3dd50910",
        "to": "0xffb5e064e2c711a21194c93d8004d12dce6c86e3",
        "gas": "0x37e6f",
        "value": "0x0",
        "input": "0x1cfa4de400000000000000000000000042a91118efe984a399b2ffa699e7f501099d804bb0251c8400000000000000000000000000000000000000000000000000000000000000000000000000000000000000000000000000000000000000006a447786",
        "nonce": "0x15d",
        "chainId": "0x14a34"
      },
      "additionalContracts": [],
      "isFixedGasLimit": false
    },
    {
      "hash": null,
      "transactionType": "CALL",
      "contractName": null,
      "contractAddress": "0x33a7764ec19f489649f2e3c9ef8c29a72656c5cb",
      "function": "setRegistry(address)",
      "arguments": [
        "0x42A91118Efe984A399B2FFA699e7F501099d804b"
      ],
      "transaction": {
        "from": "0x4c08d39f511b9d20b3ca9f62959e6c1a3dd50910",
        "to": "0x33a7764ec19f489649f2e3c9ef8c29a72656c5cb",
        "gas": "0x1050e",
        "value": "0x0",
        "input": "0xa91ee0dc00000000000000000000000042a91118efe984a399b2ffa699e7f501099d804b",
        "nonce": "0x15e",
        "chainId": "0x14a34"
      },
      "additionalContracts": [],
      "isFixedGasLimit": false
    },
    {
      "hash": null,
      "transactionType": "CALL",
      "contractName": null,
      "contractAddress": "0x42a91118efe984a399b2ffa699e7f501099d804b",
      "function": "registerBrand(string,(uint256,uint256,uint256,uint256,uint256),address,uint64,string,string[])",
      "arguments": [
        "lesscars1",
        "(86400, 500, 86400, 0, 6000)",
        "0xccfC47DaC852fa570f2D92D198fD45177B12280b",
        "387",
        "https://www.bing.com/ck/a?!&&p=91faf93b184cfab8e5985150b824ff12ef23785705d6887724dc5f3117220486JmltdHM9MTc1MTE1NTIwMA&ptn=3&ver=2&hsh=4&fclid=015fcb0c-bae6-6d66-038d-de23bb9f6c5b&psq=fwerrari&u=a1aHR0cHM6Ly93d3cuZmVycmFyaS5jb20vZW4tRU4&ntb=1",
        "[http://13.222.216.169:8080/api/sync]"
      ],
      "transaction": {
        "from": "0x4c08d39f511b9d20b3ca9f62959e6c1a3dd50910",
        "to": "0x42a91118efe984a399b2ffa699e7f501099d804b",
        "gas": "0x10adcf",
        "value": "0x0",
        "input": "0xf728d0cc0000000000000000000000000000000000000000000000000000000000000140000000000000000000000000000000000000000000000000000000000001518000000000000000000000000000000000000000000000000000000000000001f4000000000000000000000000000000000000000000000000000000000001518000000000000000000000000000000000000000000000000000000000000000000000000000000000000000000000000000000000000000000000000000001770000000000000000000000000ccfc47dac852fa570f2d92d198fd45177b12280b0000000000000000000000000000000000000000000000000000000000000183000000000000000000000000000000000000000000000000000000000000018000000000000000000000000000000000000000000000000000000000000002a000000000000000000000000000000000000000000000000000000000000000096c6573736361727331000000000000000000000000000000000000000000000000000000000000000000000000000000000000000000000000000000000000f168747470733a2f2f7777772e62696e672e636f6d2f636b2f613f212626703d393166616639336231383463666162386535393835313530623832346666313265663233373835373035643638383737323464633566333131373232303438364a6d6c7464484d394d5463314d5445314e5449774d412670746e3d33267665723d32266873683d342666636c69643d30313566636230632d626165362d366436362d303338642d646532336262396636633562267073713d667765727261726926753d61316148523063484d364c793933643363755a6d5679636d46796153356a623230765a573474525534266e74623d31000000000000000000000000000000000000000000000000000000000000000000000000000000000000000000000100000000000000000000000000000000000000000000000000000000000000200000000000000000000000000000000000000000000000000000000000000023687474703a2f2f31332e3232322e3231362e3136393a383038302f6170692f73796e630000000000000000000000000000000000000000000000000000000000",
        "nonce": "0x15f",
        "chainId": "0x14a34"
      },
      "additionalContracts": [],
      "isFixedGasLimit": false
    },
    {
      "hash": null,
      "transactionType": "CALL",
      "contractName": null,
      "contractAddress": "0x42a91118efe984a399b2ffa699e7f501099d804b",
      "function": "stake(string)",
      "arguments": [
        "lesscars1"
      ],
      "transaction": {
        "from": "0x4c08d39f511b9d20b3ca9f62959e6c1a3dd50910",
        "to": "0x42a91118efe984a399b2ffa699e7f501099d804b",
        "gas": "0x2b862",
        "value": "0x2e90edd000",
        "input": "0x46f45b8d000000000000000000000000000000000000000000000000000000000000002000000000000000000000000000000000000000000000000000000000000000096c65737363617273310000000000000000000000000000000000000000000000",
        "nonce": "0x160",
        "chainId": "0x14a34"
      },
      "additionalContracts": [],
      "isFixedGasLimit": false
    },
    {
      "hash": null,
      "transactionType": "CALL",
      "contractName": null,
      "contractAddress": "0x42a91118efe984a399b2ffa699e7f501099d804b",
      "function": "activate(string)",
      "arguments": [
        "lesscars1"
      ],
      "transaction": {
        "from": "0x4c08d39f511b9d20b3ca9f62959e6c1a3dd50910",
        "to": "0x42a91118efe984a399b2ffa699e7f501099d804b",
        "gas": "0x2035ee",
        "value": "0x0",
        "input": "0x1917ab5c000000000000000000000000000000000000000000000000000000000000002000000000000000000000000000000000000000000000000000000000000000096c65737363617273310000000000000000000000000000000000000000000000",
        "nonce": "0x161",
        "chainId": "0x14a34"
      },
      "additionalContracts": [
        {
          "transactionType": "CREATE",
          "address": "0x1b88549cd82c06875766df1f6c696c089afad628",
          "initCode": "0x3d602d80600a3d3981f3363d3d373d3d3d363d736bd35916d01519bb6e44b8e3f177ce7fa06b7ef95af43d82803e903d91602b57fd5bf3"
        },
        {
          "transactionType": "CREATE",
          "address": "0x0b260d2901ecff1198851b75ed2e3fcb98cd8925",
          "initCode": "0x3d602d80600a3d3981f3363d3d373d3d3d363d7368e68cdc93f42e7526ed6e0a0d72057d91c65ed15af43d82803e903d91602b57fd5bf3"
        },
        {
          "transactionType": "CREATE",
          "address": "0x70aae46fe3f253e80e7af157cc0e9747da41fb7e",
          "initCode": "0x3d602d80600a3d3981f3363d3d373d3d3d363d73bc9f952cd96031ad3ad62902fbb8385cf41839375af43d82803e903d91602b57fd5bf3"
        },
        {
          "transactionType": "CREATE",
          "address": "0x37cb03a1249a8f3304f0dcbda588e78ce5913b3c",
          "initCode": "0x3d602d80600a3d3981f3363d3d373d3d3d363d730f6d3acf759670e247242efc8282a740e81d468c5af43d82803e903d91602b57fd5bf3"
        },
        {
          "transactionType": "CREATE",
          "address": "0xfe08809ee88b64eca71dd0a875f32c6b2edf155c",
          "initCode": "0x3d602d80600a3d3981f3363d3d373d3d3d363d7389a65dfc88f2efc06057f65d8bdb8eb61a1181965af43d82803e903d91602b57fd5bf3"
        },
        {
          "transactionType": "CREATE",
          "address": "0x108f8df99a5ede55dda08b545db5f6886dc61d74",
          "initCode": "0x3d602d80600a3d3981f3363d3d373d3d3d363d73829fffd8976306600460ca59519cdeb0ac03c6b05af43d82803e903d91602b57fd5bf3"
        }
      ],
      "isFixedGasLimit": false
    }
  ],
  "receipts": [],
  "libraries": [],
  "pending": [
    "0x6bdb7a0a2a48bba4ceb85708837aa2dc978085bb6a211267d8e18cd7eb6c87c8"
  ],
  "returns": {},
  "timestamp": 1751336038,
  "chain": 84532,
  "commit": "c3bf784"
}