{
  "transactions": [
    {
      "hash": "0x6142c5e8775ac70e701c7e33b46108dce729c6826669c83ebecdcb33f75820ee",
      "transactionType": "CALL",
      "contractName": null,
      "contractAddress": "0x42a91118efe984a399b2ffa699e7f501099d804b",
      "function": "setInitFunction(address)",
      "arguments": [
        "0xfd2E0998d4285E890d8D4C8a76412e71ea2439B5"
      ],
      "transaction": {
        "from": "0x4c08d39f511b9d20b3ca9f62959e6c1a3dd50910",
        "to": "0x42a91118efe984a399b2ffa699e7f501099d804b",
        "gas": "0xd55b",
        "value": "0x0",
        "input": "0xfa5ed5c9000000000000000000000000fd2e0998d4285e890d8d4c8a76412e71ea2439b5",
        "nonce": "0x16a",
        "chainId": "0x14a34"
      },
      "additionalContracts": [],
      "isFixedGasLimit": false
    },
    {
      "hash": "0xcec7bb4f17ce91f6c932293891963558c224def157e922908c37f2279a443d5d",
      "transactionType": "CALL",
      "contractName": null,
      "contractAddress": "0xffb5e064e2c711a21194c93d8004d12dce6c86e3",
      "function": "grantPermission(address,bytes4,uint256)",
      "arguments": [
        "0x42A91118Efe984A399B2FFA699e7F501099d804b",
        "0xee824d66",
        "1782872090"
      ],
      "transaction": {
        "from": "0x4c08d39f511b9d20b3ca9f62959e6c1a3dd50910",
        "to": "0xffb5e064e2c711a21194c93d8004d12dce6c86e3",
        "gas": "0xfb56",
        "value": "0x0",
        "input": "0x1cfa4de400000000000000000000000042a91118efe984a399b2ffa699e7f501099d804bee824d6600000000000000000000000000000000000000000000000000000000000000000000000000000000000000000000000000000000000000006a44781a",
        "nonce": "0x16b",
        "chainId": "0x14a34"
      },
      "additionalContracts": [],
      "isFixedGasLimit": false
    },
    {
      "hash": "0x6bf60689369f60061999f789550ac632255033e5ec16caa36da9f58f40344d57",
      "transactionType": "CALL",
      "contractName": null,
      "contractAddress": "0xffb5e064e2c711a21194c93d8004d12dce6c86e3",
      "function": "grantPermission(address,bytes4,uint256)",
      "arguments": [
        "0x42A91118Efe984A399B2FFA699e7F501099d804b",
        "0xb0251c84",
        "1782872090"
      ],
      "transaction": {
        "from": "0x4c08d39f511b9d20b3ca9f62959e6c1a3dd50910",
        "to": "0xffb5e064e2c711a21194c93d8004d12dce6c86e3",
        "gas": "0x37e6f",
        "value": "0x0",
        "input": "0x1cfa4de400000000000000000000000042a91118efe984a399b2ffa699e7f501099d804bb0251c8400000000000000000000000000000000000000000000000000000000000000000000000000000000000000000000000000000000000000006a44781a",
        "nonce": "0x16c",
        "chainId": "0x14a34"
      },
      "additionalContracts": [],
      "isFixedGasLimit": false
    },
    {
      "hash": "0x28ebeedf4d1bb34a226e6c09ff82365b6b3f59e56d1d037ba938fad44866f903",
      "transactionType": "CALL",
      "contractName": null,
      "contractAddress": "0x33a7764ec19f489649f2e3c9ef8c29a72656c5cb",
      "function": "setRegistry(address)",
      "arguments": [
        "0x42A91118Efe984A399B2FFA699e7F501099d804b"
      ],
      "transaction": {
        "from": "0x4c08d39f511b9d20b3ca9f62959e6c1a3dd50910",
        "to": "0x33a7764ec19f489649f2e3c9ef8c29a72656c5cb",
        "gas": "0x99af",
        "value": "0x0",
        "input": "0xa91ee0dc00000000000000000000000042a91118efe984a399b2ffa699e7f501099d804b",
        "nonce": "0x16d",
        "chainId": "0x14a34"
      },
      "additionalContracts": [],
      "isFixedGasLimit": false
    },
    {
      "hash": "0xed6a04bed7a2ee5520a2146dd21364c06dcbaed221e21748e3f4b154c65da5f9",
      "transactionType": "CALL",
      "contractName": null,
      "contractAddress": "0x42a91118efe984a399b2ffa699e7f501099d804b",
      "function": "registerBrand(string,(uint256,uint256,uint256,uint256,uint256),address,uint64,string,string[])",
      "arguments": [
        "lesscars1",
        "(86400, 500, 86400, 0, 6000)",
        "0xccfC47DaC852fa570f2D92D198fD45177B12280b",
        "387",
        "https://www.bing.com/ck/a?!&&p=91faf93b184cfab8e5985150b824ff12ef23785705d6887724dc5f3117220486JmltdHM9MTc1MTE1NTIwMA&ptn=3&ver=2&hsh=4&fclid=015fcb0c-bae6-6d66-038d-de23bb9f6c5b&psq=fwerrari&u=a1aHR0cHM6Ly93d3cuZmVycmFyaS5jb20vZW4tRU4&ntb=1",
        "[http://13.222.216.169:8080/api/sync]"
      ],
      "transaction": {
        "from": "0x4c08d39f511b9d20b3ca9f62959e6c1a3dd50910",
        "to": "0x42a91118efe984a399b2ffa699e7f501099d804b",
        "gas": "0x10adcf",
        "value": "0x0",
        "input": "0xf728d0cc0000000000000000000000000000000000000000000000000000000000000140000000000000000000000000000000000000000000000000000000000001518000000000000000000000000000000000000000000000000000000000000001f4000000000000000000000000000000000000000000000000000000000001518000000000000000000000000000000000000000000000000000000000000000000000000000000000000000000000000000000000000000000000000000001770000000000000000000000000ccfc47dac852fa570f2d92d198fd45177b12280b0000000000000000000000000000000000000000000000000000000000000183000000000000000000000000000000000000000000000000000000000000018000000000000000000000000000000000000000000000000000000000000002a000000000000000000000000000000000000000000000000000000000000000096c6573736361727331000000000000000000000000000000000000000000000000000000000000000000000000000000000000000000000000000000000000f168747470733a2f2f7777772e62696e672e636f6d2f636b2f613f212626703d393166616639336231383463666162386535393835313530623832346666313265663233373835373035643638383737323464633566333131373232303438364a6d6c7464484d394d5463314d5445314e5449774d412670746e3d33267665723d32266873683d342666636c69643d30313566636230632d626165362d366436362d303338642d646532336262396636633562267073713d667765727261726926753d61316148523063484d364c793933643363755a6d5679636d46796153356a623230765a573474525534266e74623d31000000000000000000000000000000000000000000000000000000000000000000000000000000000000000000000100000000000000000000000000000000000000000000000000000000000000200000000000000000000000000000000000000000000000000000000000000023687474703a2f2f31332e3232322e3231362e3136393a383038302f6170692f73796e630000000000000000000000000000000000000000000000000000000000",
        "nonce": "0x16e",
        "chainId": "0x14a34"
      },
      "additionalContracts": [],
      "isFixedGasLimit": false
    },
    {
      "hash": "0xae579949dfccdafb13470e46d650cedfebe5bdb859f9ad2490b3d528a0861c3b",
      "transactionType": "CALL",
      "contractName": null,
      "contractAddress": "0x42a91118efe984a399b2ffa699e7f501099d804b",
      "function": "stake(string)",
      "arguments": [
        "lesscars1"
      ],
      "transaction": {
        "from": "0x4c08d39f511b9d20b3ca9f62959e6c1a3dd50910",
        "to": "0x42a91118efe984a399b2ffa699e7f501099d804b",
        "gas": "0x2b862",
        "value": "0x2e90edd000",
        "input": "0x46f45b8d000000000000000000000000000000000000000000000000000000000000002000000000000000000000000000000000000000000000000000000000000000096c65737363617273310000000000000000000000000000000000000000000000",
        "nonce": "0x16f",
        "chainId": "0x14a34"
      },
      "additionalContracts": [],
      "isFixedGasLimit": false
    },
    {
      "hash": "0xd7599faa51332bd393c13cca0e8bbbb6abe7e2c04d76b3aabeba7ffd4bf67542",
      "transactionType": "CALL",
      "contractName": null,
      "contractAddress": "0x42a91118efe984a399b2ffa699e7f501099d804b",
      "function": "activate(string)",
      "arguments": [
        "lesscars1"
      ],
      "transaction": {
        "from": "0x4c08d39f511b9d20b3ca9f62959e6c1a3dd50910",
        "to": "0x42a91118efe984a399b2ffa699e7f501099d804b",
        "gas": "0x2035ee",
        "value": "0x0",
        "input": "0x1917ab5c000000000000000000000000000000000000000000000000000000000000002000000000000000000000000000000000000000000000000000000000000000096c65737363617273310000000000000000000000000000000000000000000000",
        "nonce": "0x170",
        "chainId": "0x14a34"
      },
      "additionalContracts": [
        {
          "transactionType": "CREATE",
          "address": "0x1b88549cd82c06875766df1f6c696c089afad628",
          "initCode": "0x3d602d80600a3d3981f3363d3d373d3d3d363d736bd35916d01519bb6e44b8e3f177ce7fa06b7ef95af43d82803e903d91602b57fd5bf3"
        },
        {
          "transactionType": "CREATE",
          "address": "0x0b260d2901ecff1198851b75ed2e3fcb98cd8925",
          "initCode": "0x3d602d80600a3d3981f3363d3d373d3d3d363d7368e68cdc93f42e7526ed6e0a0d72057d91c65ed15af43d82803e903d91602b57fd5bf3"
        },
        {
          "transactionType": "CREATE",
          "address": "0x70aae46fe3f253e80e7af157cc0e9747da41fb7e",
          "initCode": "0x3d602d80600a3d3981f3363d3d373d3d3d363d73bc9f952cd96031ad3ad62902fbb8385cf41839375af43d82803e903d91602b57fd5bf3"
        },
        {
          "transactionType": "CREATE",
          "address": "0x37cb03a1249a8f3304f0dcbda588e78ce5913b3c",
          "initCode": "0x3d602d80600a3d3981f3363d3d373d3d3d363d730f6d3acf759670e247242efc8282a740e81d468c5af43d82803e903d91602b57fd5bf3"
        },
        {
          "transactionType": "CREATE",
          "address": "0xfe08809ee88b64eca71dd0a875f32c6b2edf155c",
          "initCode": "0x3d602d80600a3d3981f3363d3d373d3d3d363d7389a65dfc88f2efc06057f65d8bdb8eb61a1181965af43d82803e903d91602b57fd5bf3"
        },
        {
          "transactionType": "CREATE",
          "address": "0x108f8df99a5ede55dda08b545db5f6886dc61d74",
          "initCode": "0x3d602d80600a3d3981f3363d3d373d3d3d363d73829fffd8976306600460ca59519cdeb0ac03c6b05af43d82803e903d91602b57fd5bf3"
        }
      ],
      "isFixedGasLimit": false
    }
  ],
  "receipts": [
    {
      "status": "0x1",
      "cumulativeGasUsed": "0x6e8d5",
      "logs": [
        {
          "address": "0x42a91118efe984a399b2ffa699e7f501099d804b",
          "topics": [
            "0x51ed095dc92de58de4993a54d3312f43ef5979c66af9b47011e13e06114d0104"
          ],
          "data": "0x000000000000000000000000fd2e0998d4285e890d8d4c8a76412e71ea2439b5",
          "blockHash": "0x751e21ecf315b6fb2aa813935e5184f7fd294a76eff526d076f59462ee8c2e4b",
          "blockNumber": "0x1a7f312",
          "transactionHash": "0x6142c5e8775ac70e701c7e33b46108dce729c6826669c83ebecdcb33f75820ee",
          "transactionIndex": "0x2",
          "logIndex": "0x1",
          "removed": false
        }
      ],
      "logsBloom": "0x00000000000000000000000000000000000000000000000000010000000000000000000000000002000000000000002000000000000000000000000000000000000000000000000000000000000000000000000000000000000001000000000000000000000000000000000000000000000000200000020000000000000000000000000000000000000000000000000000000000000000000000000000000000000000000000000000000000000000000000000000000000000000000000000000000000000000000000000000000000000000000000000000000000000000000000000000000000000000000000000000000000000000000000000000000000",
      "type": "0x2",
      "transactionHash": "0x6142c5e8775ac70e701c7e33b46108dce729c6826669c83ebecdcb33f75820ee",
      "transactionIndex": "0x2",
      "blockHash": "0x751e21ecf315b6fb2aa813935e5184f7fd294a76eff526d076f59462ee8c2e4b",
      "blockNumber": "0x1a7f312",
      "gasUsed": "0x91e3",
      "effectiveGasPrice": "0x8914c",
      "from": "0x4c08d39f511b9d20b3ca9f62959e6c1a3dd50910",
      "to": "0x42a91118efe984a399b2ffa699e7f501099d804b",
      "contractAddress": null,
      "l1BaseFeeScalar": "0x44d",
      "l1BlobBaseFee": "0x1",
      "l1BlobBaseFeeScalar": "0xa118b",
      "l1Fee": "0x4584058a0",
      "l1GasPrice": "0x2776312c6",
      "l1GasUsed": "0x640"
    },
    {
      "status": "0x1",
      "cumulativeGasUsed": "0xd895e",
      "logs": [
        {
          "address": "0xffb5e064e2c711a21194c93d8004d12dce6c86e3",
          "topics": [
            "0x1554fb9795b486e717245df21d05fdbe91f14c98ddc6ab8081503b6c1d21512f",
            "0x00000000000000000000000042a91118efe984a399b2ffa699e7f501099d804b",
            "0xee824d6600000000000000000000000000000000000000000000000000000000"
          ],
          "data": "0x000000000000000000000000000000000000000000000000000000006a44781a0000000000000000000000000000000000000000000000000000000068634504",
          "blockHash": "0x751e21ecf315b6fb2aa813935e5184f7fd294a76eff526d076f59462ee8c2e4b",
          "blockNumber": "0x1a7f312",
          "transactionHash": "0xcec7bb4f17ce91f6c932293891963558c224def157e922908c37f2279a443d5d",
          "transactionIndex": "0x5",
          "logIndex": "0x3",
          "removed": false
        }
      ],
      "logsBloom": "0x00000000000000000000000040000000000000000000000000000000000000000000000000000020000000000000000000000000000200000000000000000000000000000000800200000000000000000000000000000000000000000000000000000800000000000000000000000000000000000000002000000000000000000000000000000000000000000000000000000000000000000000020000000000000000000000000000000002400000000000000000000000000000000000020000000200000000000000000000000000000000000000000000000000000000000000000000000000000000000000000000000000000000000000000000000000",
      "type": "0x2",
      "transactionHash": "0xcec7bb4f17ce91f6c932293891963558c224def157e922908c37f2279a443d5d",
      "transactionIndex": "0x5",
      "blockHash": "0x751e21ecf315b6fb2aa813935e5184f7fd294a76eff526d076f59462ee8c2e4b",
      "blockNumber": "0x1a7f312",
      "gasUsed": "0xabdb",
      "effectiveGasPrice": "0x8914c",
      "from": "0x4c08d39f511b9d20b3ca9f62959e6c1a3dd50910",
      "to": "0xffb5e064e2c711a21194c93d8004d12dce6c86e3",
      "contractAddress": null,
      "l1BaseFeeScalar": "0x44d",
      "l1BlobBaseFee": "0x1",
      "l1BlobBaseFeeScalar": "0xa118b",
      "l1Fee": "0x4584058a0",
      "l1GasPrice": "0x2776312c6",
      "l1GasUsed": "0x640"
    },
    {
      "status": "0x1",
      "cumulativeGasUsed": "0x1010ed",
      "logs": [
        {
          "address": "0xffb5e064e2c711a21194c93d8004d12dce6c86e3",
          "topics": [
            "0x1554fb9795b486e717245df21d05fdbe91f14c98ddc6ab8081503b6c1d21512f",
            "0x00000000000000000000000042a91118efe984a399b2ffa699e7f501099d804b",
            "0xb0251c8400000000000000000000000000000000000000000000000000000000"
          ],
          "data": "0x000000000000000000000000000000000000000000000000000000006a44781a0000000000000000000000000000000000000000000000000000000068634504",
          "blockHash": "0x751e21ecf315b6fb2aa813935e5184f7fd294a76eff526d076f59462ee8c2e4b",
          "blockNumber": "0x1a7f312",
          "transactionHash": "0x6bf60689369f60061999f789550ac632255033e5ec16caa36da9f58f40344d57",
          "transactionIndex": "0x6",
          "logIndex": "0x4",
          "removed": false
        }
      ],
      "logsBloom": "0x00000000000000000000000040000400000000000000000000000000000000000000000000100020000000000000000000000000000200000000000000000000000000000000000200000000000000000000000000000000000000000000000000000800000200000000000000000000000000000000002000000000000000000000000000000000000000000000000000000000000000000000020000000000000000000000000000000002000000000000000000000000000000000000020000000000000000000000000000000000000000000000000000000000000000000000000000000000000000000000000000000000000000000000000000000000",
      "type": "0x2",
      "transactionHash": "0x6bf60689369f60061999f789550ac632255033e5ec16caa36da9f58f40344d57",
      "transactionIndex": "0x6",
      "blockHash": "0x751e21ecf315b6fb2aa813935e5184f7fd294a76eff526d076f59462ee8c2e4b",
      "blockNumber": "0x1a7f312",
      "gasUsed": "0x2878f",
      "effectiveGasPrice": "0x8914c",
      "from": "0x4c08d39f511b9d20b3ca9f62959e6c1a3dd50910",
      "to": "0xffb5e064e2c711a21194c93d8004d12dce6c86e3",
      "contractAddress": null,
      "l1BaseFeeScalar": "0x44d",
      "l1BlobBaseFee": "0x1",
      "l1BlobBaseFeeScalar": "0xa118b",
      "l1Fee": "0x4584058a0",
      "l1GasPrice": "0x2776312c6",
      "l1GasUsed": "0x640"
    },
    {
      "status": "0x1",
      "cumulativeGasUsed": "0x108031",
      "logs": [
        {
          "address": "0x33a7764ec19f489649f2e3c9ef8c29a72656c5cb",
          "topics": [
            "0x4f6537fa52739b7c9ef41f390e437aedcfc0002e9a8c219fb048f518987006bf"
          ],
          "data": "0x00000000000000000000000042a91118efe984a399b2ffa699e7f501099d804b",
          "blockHash": "0x751e21ecf315b6fb2aa813935e5184f7fd294a76eff526d076f59462ee8c2e4b",
          "blockNumber": "0x1a7f312",
          "transactionHash": "0x28ebeedf4d1bb34a226e6c09ff82365b6b3f59e56d1d037ba938fad44866f903",
          "transactionIndex": "0x7",
          "logIndex": "0x5",
          "removed": false
        }
      ],
      "logsBloom": "0x00400000000000000000000000020000000000000000000000000000000000000000000000000000800000000000000000020000000000000000000000000000000000000000000000000000000000040000000000000000000000000000000000000000000000000000000000000000000000000000000080000000000000000000000000000000000000000000000000000000000000000000000000000000000000000000000000000000000000000000000000000000000000000000000000000000000000000000000000000000000000000000000000000000000000000000000000000000000000000000000000000000000000000000000000000000",
      "type": "0x2",
      "transactionHash": "0x28ebeedf4d1bb34a226e6c09ff82365b6b3f59e56d1d037ba938fad44866f903",
      "transactionIndex": "0x7",
      "blockHash": "0x751e21ecf315b6fb2aa813935e5184f7fd294a76eff526d076f59462ee8c2e4b",
      "blockNumber": "0x1a7f312",
      "gasUsed": "0x6f44",
      "effectiveGasPrice": "0x8914c",
      "from": "0x4c08d39f511b9d20b3ca9f62959e6c1a3dd50910",
      "to": "0x33a7764ec19f489649f2e3c9ef8c29a72656c5cb",
      "contractAddress": null,
      "l1BaseFeeScalar": "0x44d",
      "l1BlobBaseFee": "0x1",
      "l1BlobBaseFeeScalar": "0xa118b",
      "l1Fee": "0x4584058a0",
      "l1GasPrice": "0x2776312c6",
      "l1GasUsed": "0x640"
    },
    {
      "status": "0x1",
      "cumulativeGasUsed": "0x1c9375",
      "logs": [
        {
          "address": "0xfac44c030703b25911df1627824ad7303e78d491",
          "topics": [
            "0xbf50768ccf13bd0110ca6d53a9c4f1f3271abdd4c24a56878863ed25b20598ff",
            "0xae4eb4c8b295baba391754ecdcee6f075054ebb7e2687ff85ba245edf340bdda",
            "0x000000000000000000000000fd2e0998d4285e890d8d4c8a76412e71ea2439b5"
          ],
          "data": "0x0000000000000000000000004c08d39f511b9d20b3ca9f62959e6c1a3dd509100000000000000000000000000000000000000000000000000000000000000183000000000000000000000000f0830060f836b8d54bf02049e5905f619487989e00000000000000000000000000000000000000000000000000000000000002400000000000000000000000000000000000000000000000000000000000000001000000000000000000000000000000000000000000000000000000000000000000000000000000000000000000000000000000000000000000000000000493e0ae4eb4c8b295baba391754ecdcee6f075054ebb7e2687ff85ba245edf340bdda000000000000000000000000fac44c030703b25911df1627824ad7303e78d4910000000000000000000000000000000000000000000000000a1c2f998259b86b000000000000000000000000fd2e0998d4285e890d8d4c8a76412e71ea2439b5000000000000000000000000000000000000000000000000000000000000018300000000000000000000000000000000000000000000000000000000000493e000000000000000000000000000000000000000000000000003574193c4082d9100000000000000000000000000000000000000000000000000000000000000000000000000000000000000000000000000000000000000000000000000027eac000000000000000000000000000000000000000000000000000000000000dea8000000000000000000000000000000000000000000000000000000006863463000000000000000000000000000000000000000000000000000000000000001ce6c636f64654c6f636174696f6ec258200000000000000000000000000000000000000000000000000000000000000000686c616e6775616765c25820000000000000000000000000000000000000000000000000000000000000000066736f7572636579013c636f6e73742075726c203d20617267735b305d3b636f6e737420617069526573706f6e7365203d2061776169742046756e6374696f6e732e6d616b654874747052657175657374287b75726c3a2060247b75726c7d607d293b69662028617069526573706f6e73652e6572726f7229207b636f6e736f6c652e6572726f7228617069526573706f6e73652e6572726f72293b7468726f77204572726f72282753796e632052657175657374206661696c656427293b7d636f6e7374207b2064617461207d203d20617069526573706f6e73653b636f6e736f6c652e6c6f67282741504920726573706f6e736520646174613a272c204a534f4e2e737472696e6769667928646174612c206e756c6c2c203229293b72657475726e2046756e6374696f6e732e656e636f6465537472696e6728646174612e636964293b64617267739f7823687474703a2f2f31332e3232322e3231362e3136393a383038302f6170692f73796e63ff000000000000000000000000000000000000",
          "blockHash": "0x751e21ecf315b6fb2aa813935e5184f7fd294a76eff526d076f59462ee8c2e4b",
          "blockNumber": "0x1a7f312",
          "transactionHash": "0xed6a04bed7a2ee5520a2146dd21364c06dcbaed221e21748e3f4b154c65da5f9",
          "transactionIndex": "0x8",
          "logIndex": "0x6",
          "removed": false
        },
        {
          "address": "0xf9b8fc078197181c841c296c876945aaa425b278",
          "topics": [
            "0xf67aec45c9a7ede407974a3e0c3a743dffeab99ee3f2d4c9a8144c2ebf2c7ec9",
            "0xae4eb4c8b295baba391754ecdcee6f075054ebb7e2687ff85ba245edf340bdda",
            "0x66756e2d626173652d7365706f6c69612d310000000000000000000000000000",
            "0x0000000000000000000000000000000000000000000000000000000000000183"
          ],
          "data": "0x000000000000000000000000f0830060f836b8d54bf02049e5905f619487989e000000000000000000000000fd2e0998d4285e890d8d4c8a76412e71ea2439b50000000000000000000000004c08d39f511b9d20b3ca9f62959e6c1a3dd5091000000000000000000000000000000000000000000000000000000000000000e0000000000000000000000000000000000000000000000000000000000000000100000000000000000000000000000000000000000000000000000000000493e00000000000000000000000000000000000000000000000000a1c2f998259b86b00000000000000000000000000000000000000000000000000000000000001ce6c636f64654c6f636174696f6ec258200000000000000000000000000000000000000000000000000000000000000000686c616e6775616765c25820000000000000000000000000000000000000000000000000000000000000000066736f7572636579013c636f6e73742075726c203d20617267735b305d3b636f6e737420617069526573706f6e7365203d2061776169742046756e6374696f6e732e6d616b654874747052657175657374287b75726c3a2060247b75726c7d607d293b69662028617069526573706f6e73652e6572726f7229207b636f6e736f6c652e6572726f7228617069526573706f6e73652e6572726f72293b7468726f77204572726f72282753796e632052657175657374206661696c656427293b7d636f6e7374207b2064617461207d203d20617069526573706f6e73653b636f6e736f6c652e6c6f67282741504920726573706f6e736520646174613a272c204a534f4e2e737472696e6769667928646174612c206e756c6c2c203229293b72657475726e2046756e6374696f6e732e656e636f6465537472696e6728646174612e636964293b64617267739f7823687474703a2f2f31332e3232322e3231362e3136393a383038302f6170692f73796e63ff000000000000000000000000000000000000",
          "blockHash": "0x751e21ecf315b6fb2aa813935e5184f7fd294a76eff526d076f59462ee8c2e4b",
          "blockNumber": "0x1a7f312",
          "transactionHash": "0xed6a04bed7a2ee5520a2146dd21364c06dcbaed221e21748e3f4b154c65da5f9",
          "transactionIndex": "0x8",
          "logIndex": "0x7",
          "removed": false
        },
        {
          "address": "0xfd2e0998d4285e890d8d4c8a76412e71ea2439b5",
          "topics": [
            "0x1131472297a800fee664d1d89cfa8f7676ff07189ecc53f80bbb5f4969099db8",
            "0xae4eb4c8b295baba391754ecdcee6f075054ebb7e2687ff85ba245edf340bdda"
          ],
          "data": "0x",
          "blockHash": "0x751e21ecf315b6fb2aa813935e5184f7fd294a76eff526d076f59462ee8c2e4b",
          "blockNumber": "0x1a7f312",
          "transactionHash": "0xed6a04bed7a2ee5520a2146dd21364c06dcbaed221e21748e3f4b154c65da5f9",
          "transactionIndex": "0x8",
          "logIndex": "0x8",
          "removed": false
        },
        {
          "address": "0x42a91118efe984a399b2ffa699e7f501099d804b",
          "topics": [
            "0x3ac9890522326ca5c08487b1170da82dd731329aacdba9c8fa96c258a7b6b34e"
          ],
          "data": "0x0000000000000000000000000000000000000000000000000000000000000040ae4eb4c8b295baba391754ecdcee6f075054ebb7e2687ff85ba245edf340bdda00000000000000000000000000000000000000000000000000000000000000096c65737363617273310000000000000000000000000000000000000000000000",
          "blockHash": "0x751e21ecf315b6fb2aa813935e5184f7fd294a76eff526d076f59462ee8c2e4b",
          "blockNumber": "0x1a7f312",
          "transactionHash": "0xed6a04bed7a2ee5520a2146dd21364c06dcbaed221e21748e3f4b154c65da5f9",
          "transactionIndex": "0x8",
          "logIndex": "0x9",
          "removed": false
        }
      ],
      "logsBloom": "0x01000000000000800080004000000000000000800014000000010000000000000000000000000000000000000000002000008000000000000000000000000002000000000000000000000000000000000800000000000000000000000000020000000000000000000000000000000000000000008000022080000000000000000000000000000000000001000000000004000000000000000000001000000000000000000008000000000040000000000000100004000000000080000000000044000040000000000080000800000008000000080000020000000000000000000000000000000400000000000000000000000000010000000000000000200000",
      "type": "0x2",
      "transactionHash": "0xed6a04bed7a2ee5520a2146dd21364c06dcbaed221e21748e3f4b154c65da5f9",
      "transactionIndex": "0x8",
      "blockHash": "0x751e21ecf315b6fb2aa813935e5184f7fd294a76eff526d076f59462ee8c2e4b",
      "blockNumber": "0x1a7f312",
      "gasUsed": "0xc1344",
      "effectiveGasPrice": "0x8914c",
      "from": "0x4c08d39f511b9d20b3ca9f62959e6c1a3dd50910",
      "to": "0x42a91118efe984a399b2ffa699e7f501099d804b",
      "contractAddress": null,
      "l1BaseFeeScalar": "0x44d",
      "l1BlobBaseFee": "0x1",
      "l1BlobBaseFeeScalar": "0xa118b",
      "l1Fee": "0x116025da61",
      "l1GasPrice": "0x2776312c6",
      "l1GasUsed": "0x18fe"
    },
    {
      "status": "0x1",
      "cumulativeGasUsed": "0x1e8ba1",
      "logs": [
        {
          "address": "0x42a91118efe984a399b2ffa699e7f501099d804b",
          "topics": [
            "0x84aa2a725283b7498de506563a4325d5289c85269c3ba8da7c792a53d7fc556c"
          ],
          "data": "0x00000000000000000000000000000000000000000000000000000000000000400000000000000000000000004c08d39f511b9d20b3ca9f62959e6c1a3dd5091000000000000000000000000000000000000000000000000000000000000000096c65737363617273310000000000000000000000000000000000000000000000",
          "blockHash": "0x751e21ecf315b6fb2aa813935e5184f7fd294a76eff526d076f59462ee8c2e4b",
          "blockNumber": "0x1a7f312",
          "transactionHash": "0xae579949dfccdafb13470e46d650cedfebe5bdb859f9ad2490b3d528a0861c3b",
          "transactionIndex": "0x9",
          "logIndex": "0xa",
          "removed": false
        }
      ],
      "logsBloom": "0x00000000000000000000000000000000000000000000000000010000000000000000000000000000000000000000002000000000000000000000000000000000000000000000800000000000000000000000000000000000000000000000000000000000000000000000000000000000000000000000020000000000000000000000000000000000000000008000000000000000000000000000000000000000000000000000000000000000000000000000000000000000000000000000000000000000000000000000000000000000000000000000000000000000000000000000000000000000000020000000000000000000000000000000000000000000",
      "type": "0x2",
      "transactionHash": "0xae579949dfccdafb13470e46d650cedfebe5bdb859f9ad2490b3d528a0861c3b",
      "transactionIndex": "0x9",
      "blockHash": "0x751e21ecf315b6fb2aa813935e5184f7fd294a76eff526d076f59462ee8c2e4b",
      "blockNumber": "0x1a7f312",
      "gasUsed": "0x1f82c",
      "effectiveGasPrice": "0x8914c",
      "from": "0x4c08d39f511b9d20b3ca9f62959e6c1a3dd50910",
      "to": "0x42a91118efe984a399b2ffa699e7f501099d804b",
      "contractAddress": null,
      "l1BaseFeeScalar": "0x44d",
      "l1BlobBaseFee": "0x1",
      "l1BlobBaseFeeScalar": "0xa118b",
      "l1Fee": "0x4584058a0",
      "l1GasPrice": "0x2776312c6",
      "l1GasUsed": "0x640"
    },
    {
      "status": "0x1",
      "cumulativeGasUsed": "0x35dd89",
      "logs": [
        {
          "address": "0x10255361759b9c43360d5bcb56837e5c50cf192b",
          "topics": [
            "0x7e7da9a7e5d0e2868da0b53051bd9984eac62aed18ade7e0af67f05401b2929a"
          ],
          "data": "0x000000000000000000000000000000000000000000000000000000000000002000000000000000000000000000000000000000000000000000000000000000096c65737363617273310000000000000000000000000000000000000000000000",
          "blockHash": "0x751e21ecf315b6fb2aa813935e5184f7fd294a76eff526d076f59462ee8c2e4b",
          "blockNumber": "0x1a7f312",
          "transactionHash": "0xd7599faa51332bd393c13cca0e8bbbb6abe7e2c04d76b3aabeba7ffd4bf67542",
          "transactionIndex": "0xa",
          "logIndex": "0xb",
          "removed": false
        },
        {
          "address": "0xfe08809ee88b64eca71dd0a875f32c6b2edf155c",
          "topics": [
            "0x8be0079c531659141344cd1fd0a4f28419497f9722a3daafe3b4186f6b6457e0",
            "0x0000000000000000000000000000000000000000000000000000000000000000",
            "0x000000000000000000000000734a9d1004bf2b3b7f2b2d67a4ffddc249d4f77e"
          ],
          "data": "0x",
          "blockHash": "0x751e21ecf315b6fb2aa813935e5184f7fd294a76eff526d076f59462ee8c2e4b",
          "blockNumber": "0x1a7f312",
          "transactionHash": "0xd7599faa51332bd393c13cca0e8bbbb6abe7e2c04d76b3aabeba7ffd4bf67542",
          "transactionIndex": "0xa",
          "logIndex": "0xc",
          "removed": false
        },
        {
          "address": "0xfe08809ee88b64eca71dd0a875f32c6b2edf155c",
          "topics": [
            "0xc7f505b2f371ae2175ee4913f4499e1f2633a7b5936321eed1cdaeb6115181d2"
          ],
          "data": "0x0000000000000000000000000000000000000000000000000000000000000001",
          "blockHash": "0x751e21ecf315b6fb2aa813935e5184f7fd294a76eff526d076f59462ee8c2e4b",
          "blockNumber": "0x1a7f312",
          "transactionHash": "0xd7599faa51332bd393c13cca0e8bbbb6abe7e2c04d76b3aabeba7ffd4bf67542",
          "transactionIndex": "0xa",
          "logIndex": "0xd",
          "removed": false
        },
        {
          "address": "0x108f8df99a5ede55dda08b545db5f6886dc61d74",
          "topics": [
            "0x8be0079c531659141344cd1fd0a4f28419497f9722a3daafe3b4186f6b6457e0",
            "0x0000000000000000000000000000000000000000000000000000000000000000",
            "0x000000000000000000000000ccfc47dac852fa570f2d92d198fd45177b12280b"
          ],
          "data": "0x",
          "blockHash": "0x751e21ecf315b6fb2aa813935e5184f7fd294a76eff526d076f59462ee8c2e4b",
          "blockNumber": "0x1a7f312",
          "transactionHash": "0xd7599faa51332bd393c13cca0e8bbbb6abe7e2c04d76b3aabeba7ffd4bf67542",
          "transactionIndex": "0xa",
          "logIndex": "0xe",
          "removed": false
        },
        {
          "address": "0x108f8df99a5ede55dda08b545db5f6886dc61d74",
          "topics": [
            "0xc7f505b2f371ae2175ee4913f4499e1f2633a7b5936321eed1cdaeb6115181d2"
          ],
          "data": "0x0000000000000000000000000000000000000000000000000000000000000001",
          "blockHash": "0x751e21ecf315b6fb2aa813935e5184f7fd294a76eff526d076f59462ee8c2e4b",
          "blockNumber": "0x1a7f312",
          "transactionHash": "0xd7599faa51332bd393c13cca0e8bbbb6abe7e2c04d76b3aabeba7ffd4bf67542",
          "transactionIndex": "0xa",
          "logIndex": "0xf",
          "removed": false
        },
        {
          "address": "0x734a9d1004bf2b3b7f2b2d67a4ffddc249d4f77e",
          "topics": [
            "0xfcc808c4efde3b3bed8978ffdce7557fd869fa3fe0b123538ce53f805d7446f8",
            "0x88743e2127da599a313e6a295d5bf99f078d80c30cebb6cf0a52b230ebd47b08",
            "0x000000000000000000000000fe08809ee88b64eca71dd0a875f32c6b2edf155c"
          ],
          "data": "0x00000000000000000000000000000000000000000000000000000000000000010000000000000000000000000000000000000000000000000000000068634504",
          "blockHash": "0x751e21ecf315b6fb2aa813935e5184f7fd294a76eff526d076f59462ee8c2e4b",
          "blockNumber": "0x1a7f312",
          "transactionHash": "0xd7599faa51332bd393c13cca0e8bbbb6abe7e2c04d76b3aabeba7ffd4bf67542",
          "transactionIndex": "0xa",
          "logIndex": "0x10",
          "removed": false
        },
        {
          "address": "0x734a9d1004bf2b3b7f2b2d67a4ffddc249d4f77e",
          "topics": [
            "0x555b83d6c87fe088d565dd18f17fcf4d437a2efa917a7f0b111d680ed424366e",
            "0x88743e2127da599a313e6a295d5bf99f078d80c30cebb6cf0a52b230ebd47b08",
            "0x000000000000000000000000108f8df99a5ede55dda08b545db5f6886dc61d74",
            "0x000000000000000000000000ccfc47dac852fa570f2d92d198fd45177b12280b"
          ],
          "data": "0x",
          "blockHash": "0x751e21ecf315b6fb2aa813935e5184f7fd294a76eff526d076f59462ee8c2e4b",
          "blockNumber": "0x1a7f312",
          "transactionHash": "0xd7599faa51332bd393c13cca0e8bbbb6abe7e2c04d76b3aabeba7ffd4bf67542",
          "transactionIndex": "0xa",
          "logIndex": "0x11",
          "removed": false
        },
        {
          "address": "0x33a7764ec19f489649f2e3c9ef8c29a72656c5cb",
          "topics": [
            "0x48cd04660754343a75aabc83899998826b6c3fc1c623d3cfb42bcd3e465cfa3c"
          ],
          "data": "0x000000000000000000000000000000000000000000000000000000000000004000000000000000000000000042a91118efe984a399b2ffa699e7f501099d804b00000000000000000000000000000000000000000000000000000000000000096c65737363617273310000000000000000000000000000000000000000000000",
          "blockHash": "0x751e21ecf315b6fb2aa813935e5184f7fd294a76eff526d076f59462ee8c2e4b",
          "blockNumber": "0x1a7f312",
          "transactionHash": "0xd7599faa51332bd393c13cca0e8bbbb6abe7e2c04d76b3aabeba7ffd4bf67542",
          "transactionIndex": "0xa",
          "logIndex": "0x12",
          "removed": false
        },
        {
          "address": "0x42a91118efe984a399b2ffa699e7f501099d804b",
          "topics": [
            "0x7e4f0240facdc93ea495b531217c4297b7526bc3dbd11d95236c24e7950898a9"
          ],
          "data": "0x0000000000000000000000000000000000000000000000000000000000000040000000000000000000000000000000000000000000000000000000000000008000000000000000000000000000000000000000000000000000000000000000096c657373636172733100000000000000000000000000000000000000000000000000000000000000000000000000000000000000000000000000000000000000",
          "blockHash": "0x751e21ecf315b6fb2aa813935e5184f7fd294a76eff526d076f59462ee8c2e4b",
          "blockNumber": "0x1a7f312",
          "transactionHash": "0xd7599faa51332bd393c13cca0e8bbbb6abe7e2c04d76b3aabeba7ffd4bf67542",
          "transactionIndex": "0xa",
          "logIndex": "0x13",
          "removed": false
        }
      ],
      "logsBloom": "0x004000000000000000000000006400010080000000000220008100000100000040200000000000000000004000000020800200000000000002000000001000000000000000000000000000020004004400010000100000000080000000000000000000000a0000000400400000000800000000000000020000100000000000400000000000000000200800008200100004000000000080400010000000000010020000020000000000000001200000000000000000000040000000000000000000000000000000000000000000000000000000000004000000000000000020000000000000000000000000000000000000000000000200010400002020002000",
      "type": "0x2",
      "transactionHash": "0xd7599faa51332bd393c13cca0e8bbbb6abe7e2c04d76b3aabeba7ffd4bf67542",
      "transactionIndex": "0xa",
      "blockHash": "0x751e21ecf315b6fb2aa813935e5184f7fd294a76eff526d076f59462ee8c2e4b",
      "blockNumber": "0x1a7f312",
      "gasUsed": "0x1751e8",
      "effectiveGasPrice": "0x8914c",
      "from": "0x4c08d39f511b9d20b3ca9f62959e6c1a3dd50910",
      "to": "0x42a91118efe984a399b2ffa699e7f501099d804b",
      "contractAddress": null,
      "l1BaseFeeScalar": "0x44d",
      "l1BlobBaseFee": "0x1",
      "l1BlobBaseFeeScalar": "0xa118b",
      "l1Fee": "0x4584058a0",
      "l1GasPrice": "0x2776312c6",
      "l1GasUsed": "0x640"
    }
  ],
  "libraries": [],
  "pending": [],
  "returns": {},
  "timestamp": 1751336198,
  "chain": 84532,
  "commit": "c3bf784"
}