{
  "transactions": [
    {
      "hash": "0xae9d810f6e42ed33b039d493eb5df58d7a654159fca0e57b348d1e1a3c6df3b0",
      "transactionType": "CALL",
      "contractName": null,
      "contractAddress": "0xe701876fcdce0f620c5ef2553351a5f927e4a793",
      "function": "setGasLimit(uint32)",
      "arguments": [
        "4365000"
      ],
      "transaction": {
        "from": "0x4c08d39f511b9d20b3ca9f62959e6c1a3dd50910",
        "to": "0xe701876fcdce0f620c5ef2553351a5f927e4a793",
        "gas": "0xb288",
        "value": "0x0",
        "input": "0x52d84c620000000000000000000000000000000000000000000000000000000000429ac8",
        "nonce": "0x9b",
        "chainId": "0x14a34"
      },
      "additionalContracts": [],
      "isFixedGasLimit": false
    }
  ],
  "receipts": [
    {
      "status": "0x1",
      "cumulativeGasUsed": "0xa32c7c",
      "logs": [
        {
          "address": "0xe701876fcdce0f620c5ef2553351a5f927e4a793",
          "topics": [
            "0x900d7d183b5bcf6e31826dce2d99593f3c739cd1300dd5c637606a5a6117afa3"
          ],
          "data": "0x0000000000000000000000000000000000000000000000000000000000429ac80000000000000000000000004c08d39f511b9d20b3ca9f62959e6c1a3dd50910",
          "blockHash": "0x19d1741b0b58f191d26824f765994e7a5bd5eb25fbfca4660a1a6a1a0f01d4e5",
          "blockNumber": "0x1a723f0",
          "transactionHash": "0xae9d810f6e42ed33b039d493eb5df58d7a654159fca0e57b348d1e1a3c6df3b0",
          "transactionIndex": "0x1d",
          "logIndex": "0x190",
          "removed": false
        }
      ],
      "logsBloom": "0x00000000000000000080000000000000000000000000000000000000000000000000000000000001000000000000000000000000000000000000000000000020000010000000000400000000000000000000000000000000000000000000000008000000000000000000000000000000000000000000000000000000000000000000000000000000000000000000000000000000000000000000000000000000000000000000000000000000000000000000000000000000000000000000000000000000000000000000000000000000000000000000000000000000000000000000000000000000000000000000000000000000000000000000000000000000",
      "type": "0x2",
      "transactionHash": "0xae9d810f6e42ed33b039d493eb5df58d7a654159fca0e57b348d1e1a3c6df3b0",
      "transactionIndex": "0x1d",
      "blockHash": "0x19d1741b0b58f191d26824f765994e7a5bd5eb25fbfca4660a1a6a1a0f01d4e5",
      "blockNumber": "0x1a723f0",
      "gasUsed": "0x7a13",
      "effectiveGasPrice": "0xf42b7",
      "from": "0x4c08d39f511b9d20b3ca9f62959e6c1a3dd50910",
      "to": "0xe701876fcdce0f620c5ef2553351a5f927e4a793",
      "contractAddress": null,
      "l1BaseFeeScalar": "0x44d",
      "l1BlobBaseFee": "0x1",
      "l1BlobBaseFeeScalar": "0xa118b",
      "l1Fee": "0x179afc",
      "l1GasPrice": "0xd6640",
      "l1GasUsed": "0x640"
    }
  ],
  "libraries": [],
  "pending": [],
  "returns": {},
  "timestamp": 1751230146,
  "chain": 84532,
  "commit": "d0540c8"
}