{
  "transactions": [
    {
      "hash": "0xc9dd2ed82fe82d7a2b28b4355099c57355d8e0ac1d5daa4442fdbaddf2899ef9",
      "transactionType": "CALL",
      "contractName": null,
      "contractAddress": "0xe2d0fc5bc27496109cc2ab7887e5966dc1d5f610",
      "function": "grantBatchPermissions(address,bytes4[],uint256)",
      "arguments": [
        "0x4C08D39F511B9d20B3cA9F62959E6c1a3DD50910",
        "[0x1b999349]",
        "1782826302"
      ],
      "transaction": {
        "from": "0x4c08d39f511b9d20b3ca9f62959e6c1a3dd50910",
        "to": "0xe2d0fc5bc27496109cc2ab7887e5966dc1d5f610",
        "gas": "0x496cf",
        "value": "0x0",
        "input": "0xe8271df50000000000000000000000004c08d39f511b9d20b3ca9f62959e6c1a3dd509100000000000000000000000000000000000000000000000000000000000000060000000000000000000000000000000000000000000000000000000006a43c53e00000000000000000000000000000000000000000000000000000000000000011b99934900000000000000000000000000000000000000000000000000000000",
        "nonce": "0xc4",
        "chainId": "0x14a34"
      },
      "additionalContracts": [],
      "isFixedGasLimit": false
    },
    {
      "hash": "0x37d97bd41e2406ec285c65f2d34316c7385145c270666f7915da33c6deac81a7",
      "transactionType": "CALL",
      "contractName": null,
      "contractAddress": "0x5963f8017392ee998173bfc32ccd5c0f3b53da3d",
      "function": "stakeAmountset(uint256)",
      "arguments": [
        "1"
      ],
      "transaction": {
        "from": "0x4c08d39f511b9d20b3ca9f62959e6c1a3dd50910",
        "to": "0x5963f8017392ee998173bfc32ccd5c0f3b53da3d",
        "gas": "0xf594",
        "value": "0x0",
        "input": "0x1b9993490000000000000000000000000000000000000000000000000000000000000001",
        "nonce": "0xc5",
        "chainId": "0x14a34"
      },
      "additionalContracts": [],
      "isFixedGasLimit": false
    }
  ],
  "receipts": [
    {
      "status": "0x1",
      "cumulativeGasUsed": "0x36be46",
      "logs": [
        {
          "address": "0xe2d0fc5bc27496109cc2ab7887e5966dc1d5f610",
          "topics": [
            "0x1554fb9795b486e717245df21d05fdbe91f14c98ddc6ab8081503b6c1d21512f",
            "0x0000000000000000000000004c08d39f511b9d20b3ca9f62959e6c1a3dd50910",
            "0x1b99934900000000000000000000000000000000000000000000000000000000"
          ],
          "data": "0x000000000000000000000000000000000000000000000000000000006a43c53e00000000000000000000000000000000000000000000000000000000686291ce",
          "blockHash": "0x930709ca6d466d9df1f84f2d833b1bd9ad88236e9a8e213efa7146778ac180cf",
          "blockNumber": "0x1a79977",
          "transactionHash": "0xc9dd2ed82fe82d7a2b28b4355099c57355d8e0ac1d5daa4442fdbaddf2899ef9",
          "transactionIndex": "0xb",
          "logIndex": "0x53",
          "removed": false
        },
        {
          "address": "0xe2d0fc5bc27496109cc2ab7887e5966dc1d5f610",
          "topics": [
            "0x78b7e0ebd1937c62a324176788f9e4d0e92ab5f03776108bbe50a59ad31b8d64",
            "0x0000000000000000000000004c08d39f511b9d20b3ca9f62959e6c1a3dd50910"
          ],
          "data": "0x0000000000000000000000000000000000000000000000000000000000000060000000000000000000000000000000000000000000000000000000006a43c53e00000000000000000000000000000000000000000000000000000000686291ce00000000000000000000000000000000000000000000000000000000000000011b99934900000000000000000000000000000000000000000000000000000000",
          "blockHash": "0x930709ca6d466d9df1f84f2d833b1bd9ad88236e9a8e213efa7146778ac180cf",
          "blockNumber": "0x1a79977",
          "transactionHash": "0xc9dd2ed82fe82d7a2b28b4355099c57355d8e0ac1d5daa4442fdbaddf2899ef9",
          "transactionIndex": "0xb",
          "logIndex": "0x54",
          "removed": false
        }
      ],
      "logsBloom": "0x00000000000008000000000000000000000000000000000000800000000000000000000000000000000000000000000000002000000000100000000000000000000000000000000200000004000000000000000000000000000000000000000004000000400000000000000400000000000000000000000000000000000000000000000000000000000000000000000000000000000000000000020000000000000000000000000000000002000000000000000000000400000000000000001000000000000000000000000000000000000000000000000000000000000000040000000000400000000000000000000000000000000000000000000000000000",
      "type": "0x2",
      "transactionHash": "0xc9dd2ed82fe82d7a2b28b4355099c57355d8e0ac1d5daa4442fdbaddf2899ef9",
      "transactionIndex": "0xb",
      "blockHash": "0x930709ca6d466d9df1f84f2d833b1bd9ad88236e9a8e213efa7146778ac180cf",
      "blockNumber": "0x1a79977",
      "gasUsed": "0x3234a",
      "effectiveGasPrice": "0x14da7d",
      "from": "0x4c08d39f511b9d20b3ca9f62959e6c1a3dd50910",
      "to": "0xe2d0fc5bc27496109cc2ab7887e5966dc1d5f610",
      "contractAddress": null,
      "l1BaseFeeScalar": "0x44d",
      "l1BlobBaseFee": "0x1",
      "l1BlobBaseFeeScalar": "0xa118b",
      "l1Fee": "0x6bac06",
      "l1GasPrice": "0x37bcfb",
      "l1GasUsed": "0x6da"
    },
    {
      "status": "0x1",
      "cumulativeGasUsed": "0x41bbd4",
      "logs": [],
      "logsBloom": "0x00000000000000000000000000000000000000000000000000000000000000000000000000000000000000000000000000000000000000000000000000000000000000000000000000000000000000000000000000000000000000000000000000000000000000000000000000000000000000000000000000000000000000000000000000000000000000000000000000000000000000000000000000000000000000000000000000000000000000000000000000000000000000000000000000000000000000000000000000000000000000000000000000000000000000000000000000000000000000000000000000000000000000000000000000000000",
      "type": "0x2",
      "transactionHash": "0x37d97bd41e2406ec285c65f2d34316c7385145c270666f7915da33c6deac81a7",
      "transactionIndex": "0xe",
      "blockHash": "0x930709ca6d466d9df1f84f2d833b1bd9ad88236e9a8e213efa7146778ac180cf",
      "blockNumber": "0x1a79977",
      "gasUsed": "0xa7eb",
      "effectiveGasPrice": "0x14da7d",
      "from": "0x4c08d39f511b9d20b3ca9f62959e6c1a3dd50910",
      "to": "0x5963f8017392ee998173bfc32ccd5c0f3b53da3d",
      "contractAddress": null,
      "l1BaseFeeScalar": "0x44d",
      "l1BlobBaseFee": "0x1",
      "l1BlobBaseFeeScalar": "0xa118b",
      "l1Fee": "0x62307e",
      "l1GasPrice": "0x37bcfb",
      "l1GasUsed": "0x640"
    }
  ],
  "libraries": [],
  "pending": [],
  "returns": {},
  "timestamp": 1751290318,
  "chain": 84532,
  "commit": "8d44896"
}