{
  "transactions": [
    {
      "hash": "0x36948de8f55558825e31be3b5c31967465246882b7883441412cc6652b86b752",
      "transactionType": "CALL",
      "contractName": null,
      "contractAddress": "0x8fbbe003eb050c430d3ee849e2f9716d6e6b9f81",
      "function": "setGasLimit(uint32)",
      "arguments": [
        "4365000"
      ],
      "transaction": {
        "from": "0x4c08d39f511b9d20b3ca9f62959e6c1a3dd50910",
        "to": "0x8fbbe003eb050c430d3ee849e2f9716d6e6b9f81",
        "gas": "0xb288",
        "value": "0x0",
        "input": "0x52d84c620000000000000000000000000000000000000000000000000000000000429ac8",
        "nonce": "0xb9",
        "chainId": "0x14a34"
      },
      "additionalContracts": [],
      "isFixedGasLimit": false
    }
  ],
  "receipts": [
    {
      "status": "0x1",
      "cumulativeGasUsed": "0x17a8ea",
      "logs": [
        {
          "address": "0x8fbbe003eb050c430d3ee849e2f9716d6e6b9f81",
          "topics": [
            "0x900d7d183b5bcf6e31826dce2d99593f3c739cd1300dd5c637606a5a6117afa3"
          ],
          "data": "0x0000000000000000000000000000000000000000000000000000000000429ac80000000000000000000000004c08d39f511b9d20b3ca9f62959e6c1a3dd50910",
          "blockHash": "0x7a0729236f8b218282eebc1a6dd49a81cb02aa9d23013d6a396e7a912f2c864c",
          "blockNumber": "0x1a731c0",
          "transactionHash": "0x36948de8f55558825e31be3b5c31967465246882b7883441412cc6652b86b752",
          "transactionIndex": "0x6",
          "logIndex": "0x3a",
          "removed": false
        }
      ],
      "logsBloom": "0x00000000000000000000000000010000000000000000000000000000000000000000000000000000000000000000000000000000000000000000000000000020000010000000100400000000000000000000000000000000000000000000000000000000000000000000000000000000000000000000000000000000000000000000000000000000000000000000000000000000000000000000000000000000000000000000000000000000000000000000000000000000000000000008000000000000000000000000000000000000000000000000000000000000000000000000000000000000000000000000000000000000000000000000000000000000",
      "type": "0x2",
      "transactionHash": "0x36948de8f55558825e31be3b5c31967465246882b7883441412cc6652b86b752",
      "transactionIndex": "0x6",
      "blockHash": "0x7a0729236f8b218282eebc1a6dd49a81cb02aa9d23013d6a396e7a912f2c864c",
      "blockNumber": "0x1a731c0",
      "gasUsed": "0x7a13",
      "effectiveGasPrice": "0xd8277",
      "from": "0x4c08d39f511b9d20b3ca9f62959e6c1a3dd50910",
      "to": "0x8fbbe003eb050c430d3ee849e2f9716d6e6b9f81",
      "contractAddress": null,
      "l1BaseFeeScalar": "0x44d",
      "l1BlobBaseFee": "0x1",
      "l1BlobBaseFeeScalar": "0xa118b",
      "l1Fee": "0xc7631",
      "l1GasPrice": "0x712d1",
      "l1GasUsed": "0x640"
    }
  ],
  "libraries": [],
  "pending": [],
  "returns": {},
  "timestamp": 1751237217,
  "chain": 84532,
  "commit": "cf7c485"
}